{
  "contractName": "EggAuctionTemp",
  "abi": [
    {
      "constant": true,
      "inputs": [],
      "name": "acceptedToken",
      "outputs": [
        {
          "name": "",
          "type": "address"
        }
      ],
      "payable": false,
      "stateMutability": "view",
      "type": "function"
    },
    {
      "constant": true,
      "inputs": [],
      "name": "owner",
      "outputs": [
        {
          "name": "",
          "type": "address"
        }
      ],
      "payable": false,
      "stateMutability": "view",
      "type": "function"
    },
    {
      "constant": true,
      "inputs": [],
      "name": "publicationFeeInWei",
      "outputs": [
        {
          "name": "",
          "type": "uint256"
        }
      ],
      "payable": false,
      "stateMutability": "view",
      "type": "function"
    },
    {
      "constant": false,
      "inputs": [
        {
          "name": "newOwner",
          "type": "address"
        }
      ],
      "name": "transferOwnership",
      "outputs": [],
      "payable": false,
      "stateMutability": "nonpayable",
      "type": "function"
    },
    {
      "inputs": [
        {
          "name": "_acceptedToken",
          "type": "address"
        }
      ],
      "payable": false,
      "stateMutability": "nonpayable",
      "type": "constructor"
    },
    {
      "anonymous": false,
      "inputs": [
        {
          "indexed": false,
          "name": "id",
          "type": "uint256"
        },
        {
          "indexed": true,
          "name": "from",
          "type": "address"
        },
        {
          "indexed": true,
          "name": "to",
          "type": "address"
        },
        {
          "indexed": false,
          "name": "priceInWei",
          "type": "uint256"
        },
        {
          "indexed": false,
          "name": "time",
          "type": "uint256"
        },
        {
          "indexed": false,
          "name": "count",
          "type": "uint256"
        },
        {
          "indexed": false,
          "name": "eType",
          "type": "uint8"
        }
      ],
      "name": "ExchangeCreated",
      "type": "event"
    },
    {
      "constant": false,
      "inputs": [
        {
          "name": "_count",
          "type": "uint256"
        },
        {
          "name": "_to",
          "type": "address"
        }
      ],
      "name": "exchangeEggToDDC",
      "outputs": [],
      "payable": true,
      "stateMutability": "payable",
      "type": "function"
    },
    {
      "constant": false,
      "inputs": [
        {
          "name": "_count",
          "type": "uint256"
        },
        {
          "name": "_from",
          "type": "address"
        }
      ],
      "name": "exchangeDDCToEgg",
      "outputs": [],
      "payable": true,
      "stateMutability": "payable",
      "type": "function"
    },
    {
      "constant": false,
      "inputs": [
        {
          "name": "_count",
          "type": "uint8"
        }
      ],
      "name": "payInfo",
      "outputs": [],
      "payable": true,
      "stateMutability": "payable",
      "type": "function"
    },
    {
      "constant": false,
      "inputs": [
        {
          "name": "amount",
          "type": "uint256"
        },
        {
          "name": "_owner",
          "type": "address"
        }
      ],
      "name": "withdrawBalance",
      "outputs": [],
      "payable": false,
      "stateMutability": "nonpayable",
      "type": "function"
    },
    {
      "constant": true,
      "inputs": [],
      "name": "getOwnerAddr",
      "outputs": [
        {
          "name": "",
          "type": "address"
        },
        {
          "name": "",
          "type": "address"
        },
        {
          "name": "",
          "type": "address"
        }
      ],
      "payable": false,
      "stateMutability": "view",
      "type": "function"
    }
  ],
  "bytecode": "0x6080604052678ac7230489e8000060025534801561001c57600080fd5b5060405160208061096783398101806040528101908080519060200190929190505050336000806101000a81548173ffffffffffffffffffffffffffffffffffffffff021916908373ffffffffffffffffffffffffffffffffffffffff16021790555080600160006101000a81548173ffffffffffffffffffffffffffffffffffffffff021916908373ffffffffffffffffffffffffffffffffffffffff16021790555050610897806100d06000396000f300608060405260043610610099576000357c0100000000000000000000000000000000000000000000000000000000900463ffffffff1680633ef854751461009e578063451c3d80146100de5780636b1376341461013557806379e81f39146101585780638da5cb5b146101a55780639b9c8c9d146101fc578063ae4f11981461023c578063e670472314610267578063f2fde38b14610324575b600080fd5b6100dc60048036038101908080359060200190929190803573ffffffffffffffffffffffffffffffffffffffff169060200190929190505050610367565b005b3480156100ea57600080fd5b506100f36104df565b604051808273ffffffffffffffffffffffffffffffffffffffff1673ffffffffffffffffffffffffffffffffffffffff16815260200191505060405180910390f35b610156600480360381019080803560ff169060200190929190505050610505565b005b34801561016457600080fd5b506101a360048036038101908080359060200190929190803573ffffffffffffffffffffffffffffffffffffffff16906020019092919050505061051a565b005b3480156101b157600080fd5b506101ba61058b565b604051808273ffffffffffffffffffffffffffffffffffffffff1673ffffffffffffffffffffffffffffffffffffffff16815260200191505060405180910390f35b61023a60048036038101908080359060200190929190803573ffffffffffffffffffffffffffffffffffffffff1690602001909291905050506105b0565b005b34801561024857600080fd5b50610251610728565b6040518082815260200191505060405180910390f35b34801561027357600080fd5b5061027c61072e565b604051808473ffffffffffffffffffffffffffffffffffffffff1673ffffffffffffffffffffffffffffffffffffffff1681526020018373ffffffffffffffffffffffffffffffffffffffff1673ffffffffffffffffffffffffffffffffffffffff1681526020018273ffffffffffffffffffffffffffffffffffffffff1673ffffffffffffffffffffffffffffffffffffffff168152602001935050505060405180910390f35b34801561033057600080fd5b50610365600480360381019080803573ffffffffffffffffffffffffffffffffffffffff169060200190929190505050610763565b005b600160009054906101000a900473ffffffffffffffffffffffffffffffffffffffff1673ffffffffffffffffffffffffffffffffffffffff166323b872dd826000809054906101000a900473ffffffffffffffffffffffffffffffffffffffff166103dd8660025461083890919063ffffffff16565b6040518463ffffffff167c0100000000000000000000000000000000000000000000000000000000028152600401808473ffffffffffffffffffffffffffffffffffffffff1673ffffffffffffffffffffffffffffffffffffffff1681526020018373ffffffffffffffffffffffffffffffffffffffff1673ffffffffffffffffffffffffffffffffffffffff1681526020018281526020019350505050602060405180830381600087803b15801561049557600080fd5b505af11580156104a9573d6000803e3d6000fd5b505050506040513d60208110156104bf57600080fd5b810190808051906020019092919050505015156104db57600080fd5b5050565b600160009054906101000a900473ffffffffffffffffffffffffffffffffffffffff1681565b60008160ff1611151561051757600080fd5b50565b60003073ffffffffffffffffffffffffffffffffffffffff1631905082811115610586578173ffffffffffffffffffffffffffffffffffffffff166108fc849081150290604051600060405180830381858888f19350505050158015610584573d6000803e3d6000fd5b505b505050565b6000809054906101000a900473ffffffffffffffffffffffffffffffffffffffff1681565b600160009054906101000a900473ffffffffffffffffffffffffffffffffffffffff1673ffffffffffffffffffffffffffffffffffffffff166323b872dd6000809054906101000a900473ffffffffffffffffffffffffffffffffffffffff16836106268660025461083890919063ffffffff16565b6040518463ffffffff167c0100000000000000000000000000000000000000000000000000000000028152600401808473ffffffffffffffffffffffffffffffffffffffff1673ffffffffffffffffffffffffffffffffffffffff1681526020018373ffffffffffffffffffffffffffffffffffffffff1673ffffffffffffffffffffffffffffffffffffffff1681526020018281526020019350505050602060405180830381600087803b1580156106de57600080fd5b505af11580156106f2573d6000803e3d6000fd5b505050506040513d602081101561070857600080fd5b8101908080519060200190929190505050151561072457600080fd5b5050565b60025481565b60008060008060009054906101000a900473ffffffffffffffffffffffffffffffffffffffff16306000925092509250909192565b6000809054906101000a900473ffffffffffffffffffffffffffffffffffffffff1673ffffffffffffffffffffffffffffffffffffffff163373ffffffffffffffffffffffffffffffffffffffff161415156107be57600080fd5b600073ffffffffffffffffffffffffffffffffffffffff168173ffffffffffffffffffffffffffffffffffffffff1614151561083557806000806101000a81548173ffffffffffffffffffffffffffffffffffffffff021916908373ffffffffffffffffffffffffffffffffffffffff1602179055505b50565b60008082840290506000841480610859575082848281151561085657fe5b04145b151561086157fe5b80915050929150505600a165627a7a7230582083693a31e649a6e35f49dbe3375380c1036f2643bbc96c4d41ac5c856c24e0130029",
  "source": "pragma solidity ^0.4.23;\r\n\r\nlibrary SafeMath {\r\n    function mul(uint256 a, uint256 b) internal pure returns (uint256) {\r\n        uint256 c = a * b;\r\n        assert(a == 0 || c / a == b);\r\n        return c;\r\n    }\r\n    function div(uint256 a, uint256 b) internal pure returns (uint256) {\r\n        uint256 c = a / b;\r\n        return c;\r\n    }\r\n    function sub(uint256 a, uint256 b) internal pure returns (uint256) {\r\n        assert(b <= a);\r\n        return a - b;\r\n    }\r\n    function add(uint256 a, uint256 b) internal pure returns (uint256) {\r\n        uint256 c = a + b;\r\n        assert(c >= a);\r\n        return c;\r\n    }\r\n}\r\ncontract Ownable {\r\n    address public owner;\r\n\r\n    constructor() public {\r\n        owner = msg.sender;\r\n    }\r\n    modifier onlyOwner() {\r\n        require(msg.sender == owner);\r\n        _;\r\n    }\r\n    function transferOwnership(address newOwner) public onlyOwner {\r\n        if (newOwner != address(0)) {\r\n            owner = newOwner;\r\n        }\r\n    }\r\n}\r\ncontract ERC20Interface {\r\n    function transferFrom(address from, address to, uint tokens) public returns (bool success);\r\n    function balanceOf(address _owner) public view returns (uint256 balance);\r\n    function totalSupply() public view returns (uint256 total);\r\n}\r\ncontract EggAuctionTemp is Ownable{\r\n    using SafeMath for uint256;\r\n    using SafeMath for uint8;\r\n    ERC20Interface public acceptedToken;\r\n    uint256 public publicationFeeInWei = 10 ether;\r\n\r\n\r\n    constructor(address _acceptedToken) public {\r\n        acceptedToken = ERC20Interface(_acceptedToken);\r\n    }\r\n\r\n    event ExchangeCreated(\r\n        uint256 id,\r\n        address indexed from,\r\n        address indexed to,\r\n        uint256 priceInWei,\r\n        uint256 time,\r\n        uint256 count,\r\n        uint8 eType);\r\n\r\n    function exchangeEggToDDC(uint256 _count,address _to) public payable {\r\n        /*uint256 eggCount = _getEggCount(msg.sender,_eType);\r\n        require(eggCount > _count);\r\n        uint256 auctionCount = _getAuctionByType(_eType,msg.sender);\r\n        require(_count.add(auctionCount) <= eggCount );\r\n*/\r\n        require(acceptedToken.transferFrom(\r\n                owner,\r\n                address(_to),\r\n                publicationFeeInWei.mul(_count)\r\n            ));\r\n\r\n        //require(_transferEggMk(msg.sender,owner,_count,_eType,_level));\r\n        //emit ExchangeCreated(_auctionId,msg.sender,owner,publicationFeeInWei.mul(_count),now,_count,_eType);\r\n    }\r\n\r\n    function exchangeDDCToEgg(uint256 _count,address _from) public payable {\r\n        /*require(_count > 0);\r\n        require(_eType >= 0 && _eType<=20);\r\n        uint256 eggCount = _getEggCount(msg.sender,_eType);\r\n        require(eggCount > _count);\r\n        require(acceptedToken.balanceOf(msg.sender) >= _count);*/\r\n\r\n        require(acceptedToken.transferFrom(\r\n                address(_from),\r\n                owner,\r\n                publicationFeeInWei.mul(_count)\r\n            ));\r\n        //require(_transferEggMk(msg.sender,owner,_count,_eType,_level));\r\n\r\n        //emit ExchangeCreated(0,owner,msg.sender,publicationFeeInWei.mul(_count),now,_count,_eType);\r\n    }\r\n\r\n    function payInfo(uint8 _count) public payable{\r\n        require(_count > 0);\r\n    }\r\n\r\n    function withdrawBalance(uint256 amount,address _owner) external {\r\n        uint256 balance = address(this).balance;\r\n        if (balance > amount) {\r\n            address(_owner).transfer(amount);\r\n        }\r\n    }\r\n\r\n    function getOwnerAddr() external view returns(address,address,address){\r\n        return (owner,address(this),address(0));\r\n    }\r\n\r\n}\r\n",
  "sourcePath": "/home/lwd/trufflepro/contracts/temp730token.sol",
  "compiler": {
    "name": "solc",
    "version": "0.4.23+commit.124ca40d.Emscripten.clang"
  },
  "schemaVersion": "2.0.0",
  "updatedAt": "2018-05-16T03:27:47.618Z"
}