{
  "contractName": "EggAuction",
  "abi": [
    {
      "constant": true,
      "inputs": [
        {
          "name": "",
          "type": "address"
        },
        {
          "name": "",
          "type": "uint256"
        }
      ],
      "name": "mappEggMk",
      "outputs": [
        {
          "name": "",
          "type": "uint256"
        }
      ],
      "payable": false,
      "stateMutability": "view",
      "type": "function"
    },
    {
      "constant": true,
      "inputs": [],
      "name": "nonFungibleRegistry",
      "outputs": [
        {
          "name": "",
          "type": "address"
        }
      ],
      "payable": false,
      "stateMutability": "view",
      "type": "function"
    },
    {
      "constant": true,
      "inputs": [],
      "name": "totalCount",
      "outputs": [
        {
          "name": "",
          "type": "uint256"
        }
      ],
      "payable": false,
      "stateMutability": "view",
      "type": "function"
    },
    {
      "constant": true,
      "inputs": [
        {
          "name": "",
          "type": "address"
        },
        {
          "name": "",
          "type": "uint256"
        }
      ],
      "name": "auctionByTokenId",
      "outputs": [
        {
          "name": "",
          "type": "uint256"
        }
      ],
      "payable": false,
      "stateMutability": "view",
      "type": "function"
    },
    {
      "constant": false,
      "inputs": [],
      "name": "unpause",
      "outputs": [],
      "payable": false,
      "stateMutability": "nonpayable",
      "type": "function"
    },
    {
      "constant": true,
      "inputs": [],
      "name": "acceptedToken",
      "outputs": [
        {
          "name": "",
          "type": "address"
        }
      ],
      "payable": false,
      "stateMutability": "view",
      "type": "function"
    },
    {
      "constant": false,
      "inputs": [
        {
          "name": "_owner",
          "type": "address"
        }
      ],
      "name": "createInitEgg",
      "outputs": [],
      "payable": false,
      "stateMutability": "nonpayable",
      "type": "function"
    },
    {
      "constant": true,
      "inputs": [
        {
          "name": "",
          "type": "uint256"
        }
      ],
      "name": "auctions",
      "outputs": [
        {
          "name": "id",
          "type": "uint256"
        },
        {
          "name": "seller",
          "type": "address"
        },
        {
          "name": "price",
          "type": "uint256"
        },
        {
          "name": "expiresAt",
          "type": "uint256"
        },
        {
          "name": "salesCount",
          "type": "uint256"
        },
        {
          "name": "eType",
          "type": "uint8"
        }
      ],
      "payable": false,
      "stateMutability": "view",
      "type": "function"
    },
    {
      "constant": true,
      "inputs": [],
      "name": "paused",
      "outputs": [
        {
          "name": "",
          "type": "bool"
        }
      ],
      "payable": false,
      "stateMutability": "view",
      "type": "function"
    },
    {
      "constant": true,
      "inputs": [
        {
          "name": "_index",
          "type": "uint256"
        }
      ],
      "name": "getEggByType",
      "outputs": [
        {
          "name": "owner",
          "type": "address"
        },
        {
          "name": "mkCount",
          "type": "uint256"
        },
        {
          "name": "eType",
          "type": "uint8"
        },
        {
          "name": "level",
          "type": "uint8"
        }
      ],
      "payable": false,
      "stateMutability": "view",
      "type": "function"
    },
    {
      "constant": false,
      "inputs": [
        {
          "name": "_level",
          "type": "uint8"
        },
        {
          "name": "_eType",
          "type": "uint8"
        },
        {
          "name": "_count",
          "type": "uint256"
        },
        {
          "name": "_owner",
          "type": "address"
        }
      ],
      "name": "createEgg",
      "outputs": [],
      "payable": false,
      "stateMutability": "nonpayable",
      "type": "function"
    },
    {
      "constant": true,
      "inputs": [],
      "name": "ownerCutPercentage",
      "outputs": [
        {
          "name": "",
          "type": "uint256"
        }
      ],
      "payable": false,
      "stateMutability": "view",
      "type": "function"
    },
    {
      "constant": false,
      "inputs": [],
      "name": "pause",
      "outputs": [],
      "payable": false,
      "stateMutability": "nonpayable",
      "type": "function"
    },
    {
      "constant": true,
      "inputs": [],
      "name": "owner",
      "outputs": [
        {
          "name": "",
          "type": "address"
        }
      ],
      "payable": false,
      "stateMutability": "view",
      "type": "function"
    },
    {
      "constant": true,
      "inputs": [],
      "name": "publicationFeeInWei",
      "outputs": [
        {
          "name": "",
          "type": "uint256"
        }
      ],
      "payable": false,
      "stateMutability": "view",
      "type": "function"
    },
    {
      "constant": true,
      "inputs": [],
      "name": "createdCount",
      "outputs": [
        {
          "name": "",
          "type": "uint256"
        }
      ],
      "payable": false,
      "stateMutability": "view",
      "type": "function"
    },
    {
      "constant": false,
      "inputs": [
        {
          "name": "_from",
          "type": "address"
        },
        {
          "name": "_to",
          "type": "address"
        },
        {
          "name": "_count",
          "type": "uint256"
        },
        {
          "name": "_eType",
          "type": "uint8"
        },
        {
          "name": "_level",
          "type": "uint8"
        }
      ],
      "name": "transferEggMk",
      "outputs": [
        {
          "name": "",
          "type": "bool"
        }
      ],
      "payable": false,
      "stateMutability": "nonpayable",
      "type": "function"
    },
    {
      "constant": true,
      "inputs": [],
      "name": "CREATION_LIMIT",
      "outputs": [
        {
          "name": "",
          "type": "uint256"
        }
      ],
      "payable": false,
      "stateMutability": "view",
      "type": "function"
    },
    {
      "constant": true,
      "inputs": [],
      "name": "TRANSFER_STAND",
      "outputs": [
        {
          "name": "",
          "type": "uint256"
        }
      ],
      "payable": false,
      "stateMutability": "view",
      "type": "function"
    },
    {
      "constant": true,
      "inputs": [
        {
          "name": "_address",
          "type": "address"
        }
      ],
      "name": "getEggList",
      "outputs": [
        {
          "name": "",
          "type": "uint256[]"
        }
      ],
      "payable": false,
      "stateMutability": "view",
      "type": "function"
    },
    {
      "constant": false,
      "inputs": [
        {
          "name": "newOwner",
          "type": "address"
        }
      ],
      "name": "transferOwnership",
      "outputs": [],
      "payable": false,
      "stateMutability": "nonpayable",
      "type": "function"
    },
    {
      "inputs": [
        {
          "name": "_acceptedToken",
          "type": "address"
        },
        {
          "name": "_nonFungibleRegistry",
          "type": "address"
        }
      ],
      "payable": false,
      "stateMutability": "nonpayable",
      "type": "constructor"
    },
    {
      "anonymous": false,
      "inputs": [
        {
          "indexed": false,
          "name": "id",
          "type": "uint256"
        },
        {
          "indexed": true,
          "name": "seller",
          "type": "address"
        },
        {
          "indexed": false,
          "name": "priceInWei",
          "type": "uint256"
        },
        {
          "indexed": false,
          "name": "expiresAt",
          "type": "uint256"
        },
        {
          "indexed": false,
          "name": "salesCount",
          "type": "uint256"
        },
        {
          "indexed": false,
          "name": "eType",
          "type": "uint8"
        }
      ],
      "name": "AuctionCreated",
      "type": "event"
    },
    {
      "anonymous": false,
      "inputs": [
        {
          "indexed": false,
          "name": "id",
          "type": "uint256"
        },
        {
          "indexed": true,
          "name": "seller",
          "type": "address"
        },
        {
          "indexed": false,
          "name": "totalPrice",
          "type": "uint256"
        },
        {
          "indexed": true,
          "name": "winner",
          "type": "address"
        },
        {
          "indexed": false,
          "name": "salesCount",
          "type": "uint256"
        },
        {
          "indexed": false,
          "name": "eType",
          "type": "uint8"
        }
      ],
      "name": "AuctionSuccessful",
      "type": "event"
    },
    {
      "anonymous": false,
      "inputs": [
        {
          "indexed": false,
          "name": "id",
          "type": "uint256"
        },
        {
          "indexed": false,
          "name": "count",
          "type": "uint256"
        },
        {
          "indexed": true,
          "name": "seller",
          "type": "address"
        }
      ],
      "name": "AuctionCancelled",
      "type": "event"
    },
    {
      "anonymous": false,
      "inputs": [
        {
          "indexed": false,
          "name": "publicationFee",
          "type": "uint256"
        }
      ],
      "name": "ChangedPublicationFee",
      "type": "event"
    },
    {
      "anonymous": false,
      "inputs": [
        {
          "indexed": false,
          "name": "ownerCut",
          "type": "uint256"
        }
      ],
      "name": "ChangedOwnerCut",
      "type": "event"
    },
    {
      "anonymous": false,
      "inputs": [
        {
          "indexed": false,
          "name": "_level",
          "type": "uint8"
        },
        {
          "indexed": false,
          "name": "_eType",
          "type": "uint8"
        },
        {
          "indexed": false,
          "name": "_count",
          "type": "uint256"
        },
        {
          "indexed": true,
          "name": "_owner",
          "type": "address"
        }
      ],
      "name": "EggMkCreated",
      "type": "event"
    },
    {
      "anonymous": false,
      "inputs": [
        {
          "indexed": true,
          "name": "_from",
          "type": "address"
        },
        {
          "indexed": true,
          "name": "_to",
          "type": "address"
        },
        {
          "indexed": false,
          "name": "_count",
          "type": "uint256"
        },
        {
          "indexed": false,
          "name": "_eType",
          "type": "uint8"
        },
        {
          "indexed": false,
          "name": "_level",
          "type": "uint8"
        }
      ],
      "name": "TransferEggMk",
      "type": "event"
    },
    {
      "anonymous": false,
      "inputs": [
        {
          "indexed": false,
          "name": "_level",
          "type": "uint8"
        },
        {
          "indexed": false,
          "name": "_eType",
          "type": "uint8"
        },
        {
          "indexed": false,
          "name": "_count",
          "type": "uint256"
        },
        {
          "indexed": true,
          "name": "_owner",
          "type": "address"
        }
      ],
      "name": "EggMkUpdated",
      "type": "event"
    },
    {
      "anonymous": false,
      "inputs": [],
      "name": "Pause",
      "type": "event"
    },
    {
      "anonymous": false,
      "inputs": [],
      "name": "Unpause",
      "type": "event"
    },
    {
      "constant": false,
      "inputs": [
        {
          "name": "priceInWei",
          "type": "uint256"
        },
        {
          "name": "expiresAt",
          "type": "uint256"
        },
        {
          "name": "_count",
          "type": "uint256"
        },
        {
          "name": "_eType",
          "type": "uint8"
        }
      ],
      "name": "createEggAuction",
      "outputs": [],
      "payable": true,
      "stateMutability": "payable",
      "type": "function"
    },
    {
      "constant": false,
      "inputs": [
        {
          "name": "_auctionId",
          "type": "uint256"
        }
      ],
      "name": "cancelEggAuction",
      "outputs": [],
      "payable": false,
      "stateMutability": "nonpayable",
      "type": "function"
    },
    {
      "constant": false,
      "inputs": [
        {
          "name": "_auctionId",
          "type": "uint256"
        },
        {
          "name": "_count",
          "type": "uint256"
        }
      ],
      "name": "executeEggAuction",
      "outputs": [],
      "payable": true,
      "stateMutability": "payable",
      "type": "function"
    },
    {
      "constant": true,
      "inputs": [],
      "name": "getAuctions",
      "outputs": [
        {
          "name": "",
          "type": "uint256"
        },
        {
          "name": "",
          "type": "uint256[]"
        }
      ],
      "payable": false,
      "stateMutability": "view",
      "type": "function"
    },
    {
      "constant": true,
      "inputs": [
        {
          "name": "_id",
          "type": "uint256"
        }
      ],
      "name": "getAuction",
      "outputs": [
        {
          "name": "id",
          "type": "uint256"
        },
        {
          "name": "seller",
          "type": "address"
        },
        {
          "name": "price",
          "type": "uint256"
        },
        {
          "name": "expiresAt",
          "type": "uint256"
        },
        {
          "name": "salesCount",
          "type": "uint256"
        },
        {
          "name": "eType",
          "type": "uint8"
        }
      ],
      "payable": false,
      "stateMutability": "view",
      "type": "function"
    }
  ],
  "bytecode": "0x608060405260008060146101000a81548160ff021916908315150217905550678ac7230489e80000600a5534801561003657600080fd5b506040516040806129108339810180604052810190808051906020019092919080519060200190929190505050336000806101000a81548173ffffffffffffffffffffffffffffffffffffffff021916908373ffffffffffffffffffffffffffffffffffffffff16021790555081600360006101000a81548173ffffffffffffffffffffffffffffffffffffffff021916908373ffffffffffffffffffffffffffffffffffffffff16021790555080600460006101000a81548173ffffffffffffffffffffffffffffffffffffffff021916908373ffffffffffffffffffffffffffffffffffffffff16021790555050506127da806101366000396000f300608060405260043610610154576000357c0100000000000000000000000000000000000000000000000000000000900463ffffffff1680631646f3bf146101595780632534cfe3146101835780632be79833146101e457806334eafb111461023b57806339f5be76146102665780633f4ba83a146102c7578063451c3d80146102de5780634e0fb91114610335578063571a26a0146103785780635c975abb1461040e5780636a5a31e11461043d57806375a2af91146104cb57806378bd7935146105325780638174b6d7146105c85780638456cb59146105f35780638da5cb5b1461060a5780639c8e7aa414610661578063ae4f1198146106a2578063c3147346146106cd578063d68866ca146106f8578063d72b6d3b14610797578063d7c06919146107c2578063e05fe5c414610835578063e439017914610862578063eb5c81c41461088d578063f2fde38b14610925575b600080fd5b6101816004803603810190808035906020019092919080359060200190929190505050610968565b005b34801561018f57600080fd5b506101ce600480360381019080803573ffffffffffffffffffffffffffffffffffffffff16906020019092919080359060200190929190505050610da4565b6040518082815260200191505060405180910390f35b3480156101f057600080fd5b506101f9610dd4565b604051808273ffffffffffffffffffffffffffffffffffffffff1673ffffffffffffffffffffffffffffffffffffffff16815260200191505060405180910390f35b34801561024757600080fd5b50610250610dfa565b6040518082815260200191505060405180910390f35b34801561027257600080fd5b506102b1600480360381019080803573ffffffffffffffffffffffffffffffffffffffff16906020019092919080359060200190929190505050610e00565b6040518082815260200191505060405180910390f35b3480156102d357600080fd5b506102dc610e30565b005b3480156102ea57600080fd5b506102f3610eee565b604051808273ffffffffffffffffffffffffffffffffffffffff1673ffffffffffffffffffffffffffffffffffffffff16815260200191505060405180910390f35b34801561034157600080fd5b50610376600480360381019080803573ffffffffffffffffffffffffffffffffffffffff169060200190929190505050610f14565b005b34801561038457600080fd5b506103a3600480360381019080803590602001909291905050506110bb565b604051808781526020018673ffffffffffffffffffffffffffffffffffffffff1673ffffffffffffffffffffffffffffffffffffffff1681526020018581526020018481526020018381526020018260ff1660ff168152602001965050505050505060405180910390f35b34801561041a57600080fd5b50610423611133565b604051808215151515815260200191505060405180910390f35b34801561044957600080fd5b5061046860048036038101908080359060200190929190505050611146565b604051808573ffffffffffffffffffffffffffffffffffffffff1673ffffffffffffffffffffffffffffffffffffffff1681526020018481526020018360ff1660ff1681526020018260ff1660ff16815260200194505050505060405180910390f35b3480156104d757600080fd5b50610530600480360381019080803560ff169060200190929190803560ff16906020019092919080359060200190929190803573ffffffffffffffffffffffffffffffffffffffff1690602001909291905050506111cb565b005b34801561053e57600080fd5b5061055d60048036038101908080359060200190929190505050611351565b604051808781526020018673ffffffffffffffffffffffffffffffffffffffff1673ffffffffffffffffffffffffffffffffffffffff1681526020018581526020018481526020018381526020018260ff1660ff168152602001965050505050505060405180910390f35b3480156105d457600080fd5b506105dd6113dc565b6040518082815260200191505060405180910390f35b3480156105ff57600080fd5b506106086113e2565b005b34801561061657600080fd5b5061061f6114a2565b604051808273ffffffffffffffffffffffffffffffffffffffff1673ffffffffffffffffffffffffffffffffffffffff16815260200191505060405180910390f35b6106a0600480360381019080803590602001909291908035906020019092919080359060200190929190803560ff1690602001909291905050506114c7565b005b3480156106ae57600080fd5b506106b7611864565b6040518082815260200191505060405180910390f35b3480156106d957600080fd5b506106e261186a565b6040518082815260200191505060405180910390f35b34801561070457600080fd5b5061077d600480360381019080803573ffffffffffffffffffffffffffffffffffffffff169060200190929190803573ffffffffffffffffffffffffffffffffffffffff16906020019092919080359060200190929190803560ff169060200190929190803560ff169060200190929190505050611870565b604051808215151515815260200191505060405180910390f35b3480156107a357600080fd5b506107ac611907565b6040518082815260200191505060405180910390f35b3480156107ce57600080fd5b506107d761190e565b6040518083815260200180602001828103825283818151815260200191508051906020019060200280838360005b83811015610820578082015181840152602081019050610805565b50505050905001935050505060405180910390f35b34801561084157600080fd5b50610860600480360381019080803590602001909291905050506119b9565b005b34801561086e57600080fd5b50610877611b9e565b6040518082815260200191505060405180910390f35b34801561089957600080fd5b506108ce600480360381019080803573ffffffffffffffffffffffffffffffffffffffff169060200190929190505050611ba3565b6040518080602001828103825283818151815260200191508051906020019060200280838360005b838110156109115780820151818401526020810190506108f6565b505050509050019250505060405180910390f35b34801561093157600080fd5b50610966600480360381019080803573ffffffffffffffffffffffffffffffffffffffff169060200190929190505050611c3a565b005b600080600080600080600060149054906101000a900460ff1615151561098d57600080fd5b60078881548110151561099c57fe5b906000526020600020906006020160010160009054906101000a900473ffffffffffffffffffffffffffffffffffffffff1695503373ffffffffffffffffffffffffffffffffffffffff168673ffffffffffffffffffffffffffffffffffffffff1614151515610a0b57600080fd5b6000600789815481101515610a1c57fe5b906000526020600020906006020160040154111515610a3a57600080fd5b34610a6e8860078b815481101515610a4e57fe5b906000526020600020906006020160020154611d0f90919063ffffffff16565b141515610a7a57600080fd5b600788815481101515610a8957fe5b906000526020600020906006020160050160009054906101000a900460ff1694503493506000809054906101000a900473ffffffffffffffffffffffffffffffffffffffff1673ffffffffffffffffffffffffffffffffffffffff168673ffffffffffffffffffffffffffffffffffffffff16141515610b7657610b17606485611d4290919063ffffffff16565b9250610b2c8385611d5d90919063ffffffff16565b91508573ffffffffffffffffffffffffffffffffffffffff166108fc839081150290604051600060405180830381858888f19350505050158015610b74573d6000803e3d6000fd5b505b610b84863389886000611d76565b1515610b8f57600080fd5b610b9988876121a9565b905086600789815481101515610bab57fe5b906000526020600020906006020160040154111515610cbf57600788815481101515610bd357fe5b90600052602060002090600602016000808201600090556001820160006101000a81549073ffffffffffffffffffffffffffffffffffffffff02191690556002820160009055600382016000905560048201600090556005820160006101000a81549060ff02191690555050600860008060009054906101000a900473ffffffffffffffffffffffffffffffffffffffff1673ffffffffffffffffffffffffffffffffffffffff1673ffffffffffffffffffffffffffffffffffffffff16815260200190815260200160002081815481101515610cac57fe5b9060005260206000200160009055610d17565b610cf28760078a815481101515610cd257fe5b906000526020600020906006020160040154611d5d90919063ffffffff16565b600789815481101515610d0157fe5b9060005260206000209060060201600401819055505b3373ffffffffffffffffffffffffffffffffffffffff168673ffffffffffffffffffffffffffffffffffffffff167fab65f5325e40a9aba0b50d73854e5e36a7abc8d2a84626118d19197e49ca20988a878b8a604051808581526020018481526020018381526020018260ff1660ff16815260200194505050505060405180910390a35050505050505050565b600260205281600052604060002081815481101515610dbf57fe5b90600052602060002001600091509150505481565b600460009054906101000a900473ffffffffffffffffffffffffffffffffffffffff1681565b60055481565b600860205281600052604060002081815481101515610e1b57fe5b90600052602060002001600091509150505481565b6000809054906101000a900473ffffffffffffffffffffffffffffffffffffffff1673ffffffffffffffffffffffffffffffffffffffff163373ffffffffffffffffffffffffffffffffffffffff16141515610e8b57600080fd5b600060149054906101000a900460ff161515610ea657600080fd5b60008060146101000a81548160ff0219169083151502179055507f7805862f689e2f13df9f062ff482ad3ad112aca9e0847911ed832e158c525b3360405160405180910390a1565b600360009054906101000a900473ffffffffffffffffffffffffffffffffffffffff1681565b6000809054906101000a900473ffffffffffffffffffffffffffffffffffffffff1673ffffffffffffffffffffffffffffffffffffffff163373ffffffffffffffffffffffffffffffffffffffff16141515610f6f57600080fd5b6207a120600654101515610f8257600080fd5b6207a120611091600a600360009054906101000a900473ffffffffffffffffffffffffffffffffffffffff1673ffffffffffffffffffffffffffffffffffffffff166370a08231856040518263ffffffff167c0100000000000000000000000000000000000000000000000000000000028152600401808273ffffffffffffffffffffffffffffffffffffffff1673ffffffffffffffffffffffffffffffffffffffff168152602001915050602060405180830381600087803b15801561104857600080fd5b505af115801561105c573d6000803e3d6000fd5b505050506040513d602081101561107257600080fd5b8101908080519060200190929190505050611d0f90919063ffffffff16565b11151561109d57600080fd5b6110ad6000806207a12084612275565b506207a12060068190555050565b6007818154811015156110ca57fe5b90600052602060002090600602016000915090508060000154908060010160009054906101000a900473ffffffffffffffffffffffffffffffffffffffff16908060020154908060030154908060040154908060050160009054906101000a900460ff16905086565b600060149054906101000a900460ff1681565b600080600080600060018681548110151561115d57fe5b906000526020600020906003020190508060000160009054906101000a900473ffffffffffffffffffffffffffffffffffffffff1681600101548260020160009054906101000a900460ff168360020160019054906101000a900460ff169450945094509450509193509193565b6000809054906101000a900473ffffffffffffffffffffffffffffffffffffffff1673ffffffffffffffffffffffffffffffffffffffff163373ffffffffffffffffffffffffffffffffffffffff1614151561122657600080fd5b81611332600a600360009054906101000a900473ffffffffffffffffffffffffffffffffffffffff1673ffffffffffffffffffffffffffffffffffffffff166370a08231856040518263ffffffff167c0100000000000000000000000000000000000000000000000000000000028152600401808273ffffffffffffffffffffffffffffffffffffffff1673ffffffffffffffffffffffffffffffffffffffff168152602001915050602060405180830381600087803b1580156112e957600080fd5b505af11580156112fd573d6000803e3d6000fd5b505050506040513d602081101561131357600080fd5b8101908080519060200190929190505050611d0f90919063ffffffff16565b11151561133e57600080fd5b61134a84848484612275565b5050505050565b600080600080600080600060078881548110151561136b57fe5b90600052602060002090600602019050806000015496508060010160009054906101000a900473ffffffffffffffffffffffffffffffffffffffff1695508060020154945080600301549350806004015492508060050160009054906101000a900460ff1691505091939550919395565b60095481565b6000809054906101000a900473ffffffffffffffffffffffffffffffffffffffff1673ffffffffffffffffffffffffffffffffffffffff163373ffffffffffffffffffffffffffffffffffffffff1614151561143d57600080fd5b600060149054906101000a900460ff1615151561145957600080fd5b6001600060146101000a81548160ff0219169083151502179055507f6985a02210a168e66602d3235cb6db0e70f92b3ba4d376a33c0f3d9434bff62560405160405180910390a1565b6000809054906101000a900473ffffffffffffffffffffffffffffffffffffffff1681565b600080600060149054906101000a900460ff161515156114e657600080fd5b600073ffffffffffffffffffffffffffffffffffffffff163373ffffffffffffffffffffffffffffffffffffffff161415151561152257600080fd5b60148360ff161115151561153557600080fd5b6001841015151561154557600080fd5b611650600a600360009054906101000a900473ffffffffffffffffffffffffffffffffffffffff1673ffffffffffffffffffffffffffffffffffffffff166370a08231336040518263ffffffff167c0100000000000000000000000000000000000000000000000000000000028152600401808273ffffffffffffffffffffffffffffffffffffffff1673ffffffffffffffffffffffffffffffffffffffff168152602001915050602060405180830381600087803b15801561160757600080fd5b505af115801561161b573d6000803e3d6000fd5b505050506040513d602081101561163157600080fd5b8101908080519060200190929190505050611d0f90919063ffffffff16565b915081841115151561166157600080fd5b60008611151561167057600080fd5b6007805490509050600760c0604051908101604052808381526020013373ffffffffffffffffffffffffffffffffffffffff1681526020018881526020018781526020018681526020018560ff16815250908060018154018082558091505090600182039060005260206000209060060201600090919290919091506000820151816000015560208201518160010160006101000a81548173ffffffffffffffffffffffffffffffffffffffff021916908373ffffffffffffffffffffffffffffffffffffffff16021790555060408201518160020155606082015181600301556080820151816004015560a08201518160050160006101000a81548160ff021916908360ff160217905550505050600860003373ffffffffffffffffffffffffffffffffffffffff1673ffffffffffffffffffffffffffffffffffffffff1681526020019081526020016000208190806001815401808255809150509060018203906000526020600020016000909192909190915055503373ffffffffffffffffffffffffffffffffffffffff167fded44d85ac7c09528117e66c774bc3d55d381b31d4b6ac2c58248647e22be9788288888888604051808681526020018581526020018481526020018381526020018260ff1660ff1681526020019550505050505060405180910390a2505050505050565b600a5481565b60065481565b60008060009054906101000a900473ffffffffffffffffffffffffffffffffffffffff1673ffffffffffffffffffffffffffffffffffffffff163373ffffffffffffffffffffffffffffffffffffffff161415156118cd57600080fd5b60148360ff16111515156118e057600080fd5b600184101515156118f057600080fd5b6118fd8686868686611d76565b5095945050505050565b6207a12081565b600060608060006007805490506040519080825280602002602001820160405280156119495781602001602082028038833980820191505090505b509150600090505b6007805490508110156119a85760078181548110151561196d57fe5b906000526020600020906006020160000154828281518110151561198d57fe5b90602001906020020181815250508080600101915050611951565b600780549050829350935050509091565b600080600060149054906101000a900460ff161515156119d857600080fd5b6119e283336121a9565b91506007838154811015156119f357fe5b9060005260206000209060060201600401549050600082101580611a6357506000809054906101000a900473ffffffffffffffffffffffffffffffffffffffff1673ffffffffffffffffffffffffffffffffffffffff163373ffffffffffffffffffffffffffffffffffffffff16145b1515611a6e57600080fd5b600860003373ffffffffffffffffffffffffffffffffffffffff1673ffffffffffffffffffffffffffffffffffffffff16815260200190815260200160002082815481101515611aba57fe5b9060005260206000200160009055600783815481101515611ad757fe5b90600052602060002090600602016000808201600090556001820160006101000a81549073ffffffffffffffffffffffffffffffffffffffff02191690556002820160009055600382016000905560048201600090556005820160006101000a81549060ff021916905550503373ffffffffffffffffffffffffffffffffffffffff167fc7431c6b1d914f39e2fd63a9d1e3b7df6a8fc2332fce7a9a050a97398fd837ff8483604051808381526020018281526020019250505060405180910390a2505050565b600a81565b6060600260008373ffffffffffffffffffffffffffffffffffffffff1673ffffffffffffffffffffffffffffffffffffffff168152602001908152602001600020805480602002602001604051908101604052809291908181526020018280548015611c2e57602002820191906000526020600020905b815481526020019060010190808311611c1a575b50505050509050919050565b6000809054906101000a900473ffffffffffffffffffffffffffffffffffffffff1673ffffffffffffffffffffffffffffffffffffffff163373ffffffffffffffffffffffffffffffffffffffff16141515611c9557600080fd5b600073ffffffffffffffffffffffffffffffffffffffff168173ffffffffffffffffffffffffffffffffffffffff16141515611d0c57806000806101000a81548173ffffffffffffffffffffffffffffffffffffffff021916908373ffffffffffffffffffffffffffffffffffffffff1602179055505b50565b60008082840290506000841480611d305750828482811515611d2d57fe5b04145b1515611d3857fe5b8091505092915050565b6000808284811515611d5057fe5b0490508091505092915050565b6000828211151515611d6b57fe5b818303905092915050565b600080600060148560ff1611151515611d8e57600080fd5b60018610151515611d9e57600080fd5b600090506000600260008a73ffffffffffffffffffffffffffffffffffffffff1673ffffffffffffffffffffffffffffffffffffffff16815260200190815260200160002080549050111561219b57600091505b600260008973ffffffffffffffffffffffffffffffffffffffff1673ffffffffffffffffffffffffffffffffffffffff1681526020019081526020016000208054905082101561219a578460ff166001600260008b73ffffffffffffffffffffffffffffffffffffffff1673ffffffffffffffffffffffffffffffffffffffff16815260200190815260200160002084815481101515611e8e57fe5b9060005260206000200154815481101515611ea557fe5b906000526020600020906003020160020160009054906101000a900460ff1660ff16141561218d57856001600260008b73ffffffffffffffffffffffffffffffffffffffff1673ffffffffffffffffffffffffffffffffffffffff16815260200190815260200160002084815481101515611f1c57fe5b9060005260206000200154815481101515611f3357fe5b9060005260206000209060030201600101541415612077576001600260008a73ffffffffffffffffffffffffffffffffffffffff1673ffffffffffffffffffffffffffffffffffffffff16815260200190815260200160002083815481101515611f9957fe5b9060005260206000200154815481101515611fb057fe5b9060005260206000209060030201600080820160006101000a81549073ffffffffffffffffffffffffffffffffffffffff021916905560018201600090556002820160006101000a81549060ff02191690556002820160016101000a81549060ff02191690555050600260008973ffffffffffffffffffffffffffffffffffffffff1673ffffffffffffffffffffffffffffffffffffffff1681526020019081526020016000208281548110151561206457fe5b906000526020600020016000905561217b565b612100866001600260008c73ffffffffffffffffffffffffffffffffffffffff1673ffffffffffffffffffffffffffffffffffffffff168152602001908152602001600020858154811015156120c957fe5b90600052602060002001548154811015156120e057fe5b906000526020600020906003020160010154611d5d90919063ffffffff16565b6001600260008b73ffffffffffffffffffffffffffffffffffffffff1673ffffffffffffffffffffffffffffffffffffffff1681526020019081526020016000208481548110151561214e57fe5b906000526020600020015481548110151561216557fe5b9060005260206000209060030201600101819055505b6121878486888a612275565b50600190505b8180600101925050611df2565b5b809250505095945050505050565b600080600090505b600860008473ffffffffffffffffffffffffffffffffffffffff1673ffffffffffffffffffffffffffffffffffffffff1681526020019081526020016000208054905081101561226b5783600860008573ffffffffffffffffffffffffffffffffffffffff1673ffffffffffffffffffffffffffffffffffffffff1681526020019081526020016000208281548110151561224857fe5b9060005260206000200154141561225e5761226b565b80806001019150506121b1565b8091505092915050565b6000806000612282612769565b600060148860ff161115151561229757600080fd5b600092506000600260008873ffffffffffffffffffffffffffffffffffffffff1673ffffffffffffffffffffffffffffffffffffffff16815260200190815260200160002080549050111561254657600093505b600260008773ffffffffffffffffffffffffffffffffffffffff1673ffffffffffffffffffffffffffffffffffffffff16815260200190815260200160002080549050841015612545578760ff166001600260008973ffffffffffffffffffffffffffffffffffffffff1673ffffffffffffffffffffffffffffffffffffffff1681526020019081526020016000208681548110151561238757fe5b906000526020600020015481548110151561239e57fe5b906000526020600020906003020160020160009054906101000a900460ff1660ff1614156125385761244f876001600260008a73ffffffffffffffffffffffffffffffffffffffff1673ffffffffffffffffffffffffffffffffffffffff1681526020019081526020016000208781548110151561241857fe5b906000526020600020015481548110151561242f57fe5b90600052602060002090600302016001015461274b90919063ffffffff16565b6001600260008973ffffffffffffffffffffffffffffffffffffffff1673ffffffffffffffffffffffffffffffffffffffff1681526020019081526020016000208681548110151561249d57fe5b90600052602060002001548154811015156124b457fe5b9060005260206000209060030201600101819055508573ffffffffffffffffffffffffffffffffffffffff167f2854b136bf4fd3085f86deb8425ff9a48c39eb51c3b0276d3f75f46c648681db8a8a8a604051808460ff1660ff1681526020018360ff1660ff168152602001828152602001935050505060405180910390a2600192505b83806001019450506122eb565b5b821515612738576080604051908101604052808773ffffffffffffffffffffffffffffffffffffffff1681526020018881526020018960ff1681526020018a60ff168152509150612662600180849080600181540180825580915050906001820390600052602060002090600302016000909192909190915060008201518160000160006101000a81548173ffffffffffffffffffffffffffffffffffffffff021916908373ffffffffffffffffffffffffffffffffffffffff1602179055506020820151816001015560408201518160020160006101000a81548160ff021916908360ff16021790555060608201518160020160016101000a81548160ff021916908360ff1602179055505050611d5d90919063ffffffff16565b9050600260008773ffffffffffffffffffffffffffffffffffffffff1673ffffffffffffffffffffffffffffffffffffffff1681526020019081526020016000208190806001815401808255809150509060018203906000526020600020016000909192909190915055508573ffffffffffffffffffffffffffffffffffffffff167f17380e5c7e49bb63456c169391a3c9d352ebf36d3213078b1f8caec842b26edb8a8a8a604051808460ff1660ff1681526020018360ff1660ff168152602001828152602001935050505060405180910390a25b8160200151945050505050949350505050565b600080828401905083811015151561275f57fe5b8091505092915050565b608060405190810160405280600073ffffffffffffffffffffffffffffffffffffffff16815260200160008152602001600060ff168152602001600060ff16815250905600a165627a7a7230582048996ae5296a7aa80a4f216e08ad26d936882c55f1aaa3891809a5a15c6b3a280029",
  "source": "pragma solidity ^0.4.23;\r\n\r\nlibrary SafeMath {\r\n    function mul(uint256 a, uint256 b) internal pure returns (uint256) {\r\n        uint256 c = a * b;\r\n        assert(a == 0 || c / a == b);\r\n        return c;\r\n    }\r\n    function div(uint256 a, uint256 b) internal pure returns (uint256) {\r\n        uint256 c = a / b;\r\n        return c;\r\n    }\r\n    function sub(uint256 a, uint256 b) internal pure returns (uint256) {\r\n        assert(b <= a);\r\n        return a - b;\r\n    }\r\n    function add(uint256 a, uint256 b) internal pure returns (uint256) {\r\n        uint256 c = a + b;\r\n        assert(c >= a);\r\n        return c;\r\n    }\r\n}\r\n//\r\ncontract Ownable {\r\n    address public owner;\r\n\r\n    constructor() public {\r\n        owner = msg.sender;\r\n    }\r\n    modifier onlyOwner() {\r\n        require(msg.sender == owner);\r\n        _;\r\n    }\r\n    function transferOwnership(address newOwner) public onlyOwner {\r\n        if (newOwner != address(0)) {\r\n            owner = newOwner;\r\n        }\r\n    }\r\n}\r\ncontract Destructible is Ownable {\r\n    constructor() public payable { }\r\n    function destroy() onlyOwner public {\r\n        selfdestruct(owner);\r\n    }\r\n    function destroyAndSend(address _recipient) onlyOwner public {\r\n        selfdestruct(_recipient);\r\n    }\r\n}\r\ncontract Pausable is Ownable {\r\n    event Pause();\r\n    event Unpause();\r\n\r\n    bool public paused = false;\r\n    modifier whenNotPaused() {\r\n        require(!paused);\r\n        _;\r\n    }\r\n    modifier whenPaused() {\r\n        require(paused);\r\n        _;\r\n    }\r\n    function pause() onlyOwner whenNotPaused public {\r\n        paused = true;\r\n        emit Pause();\r\n    }\r\n    function unpause() onlyOwner whenPaused public {\r\n        paused = false;\r\n        emit Unpause();\r\n    }\r\n}\r\ncontract ERC20Interface {\r\n    function transferFrom(address from, address to, uint tokens) public returns (bool success);\r\n    function balanceOf(address _owner) public view returns (uint256 balance);\r\n    function totalSupply() public view returns (uint256 total);\r\n}\r\n\r\ncontract ERC721Interface {\r\n    function ownerOf(uint256 tokenId) public view returns (address);\r\n    function safeTransferFrom(address from, address to, uint256 tokenId) public;\r\n    function approve(address _to, uint256 _tokenId) external;\r\n}\r\n\r\ncontract Market20 is Ownable,Pausable {\r\n    using SafeMath for uint256;\r\n    using SafeMath for uint8;\r\n\r\n    event EggMkCreated(uint8 _level,uint8 _eType,uint256 _count,address indexed _owner);\r\n    event TransferEggMk(address indexed _from,address indexed _to,uint256 _count,uint8 _eType,uint8 _level);\r\n    event EggMkUpdated(uint8 _level,uint8 _eType,uint256 _count,address indexed _owner);\r\n\r\n    struct EggMk {\r\n        address owner;\r\n        uint256 mkCount;\r\n        uint8 eType;\r\n        uint8 level;\r\n    }\r\n    EggMk[] eggs;\r\n    mapping (address => uint256[]) public mappEggMk;\r\n\r\n    function _createEggMk(uint8 _level,uint8 _eType,uint256 _count,address _owner) internal returns (uint){\r\n        require(_eType <= 20);\r\n        uint i;\r\n        bool flag = false;\r\n        if(mappEggMk[_owner].length >0 ){\r\n            for(i=0;i<mappEggMk[_owner].length;i++){\r\n                if(eggs[mappEggMk[_owner][i]].eType == _eType){\r\n                    eggs[mappEggMk[_owner][i]].mkCount = eggs[mappEggMk[_owner][i]].mkCount.add(_count);\r\n                    emit EggMkUpdated(_level,_eType,_count,_owner);\r\n                    flag = true;\r\n                }\r\n            }\r\n        }\r\n        if(!flag){\r\n            EggMk memory curEggMak = EggMk(_owner,_count,_eType,_level);\r\n            uint256 auctionId = eggs.push(curEggMak).sub(1);\r\n            mappEggMk[_owner].push(auctionId);\r\n            emit EggMkCreated(_level,_eType,_count,_owner);\r\n        }\r\n        return curEggMak.mkCount;\r\n    }\r\n    //EggMk[] eggs;\r\n    //mapping (address => uint256[]) public mappEggMk;\r\n    function _transferEggMk(address _from,address _to,uint256 _count,uint8 _eType,uint8 _level) internal returns (bool){\r\n        require(_eType <= 20);\r\n        require(_count >= 1);\r\n        uint i;\r\n        bool flag = false;\r\n        if(mappEggMk[_from].length >0 ){\r\n            for(i=0;i<mappEggMk[_from].length;i++){\r\n                if(eggs[mappEggMk[_from][i]].eType == _eType){\r\n                    if(eggs[mappEggMk[_from][i]].mkCount == _count){\r\n                        delete eggs[mappEggMk[_from][i]];\r\n                        delete mappEggMk[_from][i];\r\n                    }else{\r\n                        eggs[mappEggMk[_from][i]].mkCount = eggs[mappEggMk[_from][i]].mkCount.sub(_count);\r\n                    }\r\n                    _createEggMk(_level,_eType,_count,_to);\r\n                    flag = true;\r\n                }\r\n            }\r\n        }\r\n        return flag;\r\n    }\r\n}\r\n\r\ncontract MarketUse is Market20 {\r\n    ERC20Interface public acceptedToken;\r\n    ERC721Interface public nonFungibleRegistry;\r\n\r\n    uint256 public constant CREATION_LIMIT = 500000;\r\n    uint256 public constant TRANSFER_STAND = 10;\r\n    uint256 public totalCount;\r\n    uint256 public createdCount;\r\n\r\n    function createInitEgg( address _owner) external onlyOwner {\r\n        require(createdCount < CREATION_LIMIT);\r\n        require(acceptedToken.balanceOf(_owner).mul(TRANSFER_STAND) > CREATION_LIMIT );\r\n        _createEggMk(0, 0,CREATION_LIMIT,_owner);\r\n        createdCount = CREATION_LIMIT;\r\n    }\r\n    function createEgg(uint8 _level,uint8 _eType,uint256 _count, address _owner) external onlyOwner {\r\n        require(acceptedToken.balanceOf(_owner).mul(TRANSFER_STAND) > _count);\r\n        _createEggMk(_level, _eType,_count,_owner);\r\n    }\r\n    function transferEggMk(address _from,address _to,uint256 _count,uint8 _eType,uint8 _level) external onlyOwner returns (bool){\r\n        require(_eType <= 20);\r\n        require(_count >= 1);\r\n        _transferEggMk(_from,_to,_count,_eType,_level);\r\n    }\r\n    function getEggList(address _address) external view returns (uint256[]) {\r\n        return mappEggMk[_address];\r\n    }\r\n    function getEggByType(uint256 _index) external view returns (\r\n        address owner,\r\n        uint256 mkCount,\r\n        uint8 eType,\r\n        uint8 level\r\n    ) {\r\n        EggMk storage mk = eggs[_index];\r\n        return (mk.owner,mk.mkCount,mk.eType,mk.level);\r\n    }\r\n}\r\n\r\ncontract EggAuction is MarketUse {\r\n    struct Auction {\r\n        uint256 id;// Auction ID\r\n        address seller;// Owner of the NFT\r\n        uint256 price;// Price (in wei) for the published item\r\n        uint256 expiresAt;// Time when this sale ends\r\n        uint256 salesCount;\r\n        uint8 eType;\r\n    }\r\n    struct War {\r\n        uint256 id;// war ID\r\n        address seller;// Owner of the NFT\r\n        uint256 random;// random number\r\n        uint256 startTime;// Time when this war start\r\n        uint256 expiresAt;// Time when this war ends\r\n        uint8 eType;//war type\r\n    }\r\n\r\n    Auction[] public auctions;\r\n    mapping (address => uint256[]) public auctionByTokenId;\r\n\r\n    uint256 public ownerCutPercentage;\r\n    uint256 public publicationFeeInWei = 10 ether;\r\n\r\n    /* EVENTS */\r\n    event AuctionCreated(\r\n        uint256 id,\r\n        address indexed seller,\r\n        uint256 priceInWei,\r\n        uint256 expiresAt,\r\n        uint256 salesCount,\r\n        uint8 eType);\r\n    event AuctionSuccessful(\r\n        uint256 id,\r\n        address indexed seller,\r\n        uint256 totalPrice,\r\n        address indexed winner,\r\n        uint256 salesCount,\r\n        uint8 eType);\r\n    event AuctionCancelled(\r\n        uint256 id,\r\n        uint256 count,\r\n        address indexed seller);\r\n\r\n    event ChangedPublicationFee(uint256 publicationFee);\r\n    event ChangedOwnerCut(uint256 ownerCut);\r\n\r\n    constructor(address _acceptedToken, address _nonFungibleRegistry) public {\r\n        acceptedToken = ERC20Interface(_acceptedToken);\r\n        nonFungibleRegistry = ERC721Interface(_nonFungibleRegistry);\r\n    }\r\n\r\n    function _getAuctionIndex(uint256 _auctionId,address _owner) view internal returns (uint256) {\r\n        uint256 i;\r\n        for(i=0;i<auctionByTokenId[_owner].length;i++){\r\n            if(auctionByTokenId[_owner][i] == _auctionId){\r\n                break;\r\n            }\r\n        }\r\n        return i;\r\n    }\r\n\r\n    function createEggAuction(uint256 priceInWei, uint256 expiresAt,uint256 _count,uint8 _eType) public payable whenNotPaused {\r\n        require(msg.sender != address(0));\r\n        require(_eType <= 20);\r\n        require(_count >= 1);\r\n        uint tokenCount = acceptedToken.balanceOf(msg.sender).mul(TRANSFER_STAND);\r\n        require(_count <= tokenCount );\r\n        require(priceInWei > 0);\r\n        uint256 auctionId = auctions.length;\r\n        auctions.push(Auction({id: auctionId,seller: msg.sender,\r\n            price: priceInWei,expiresAt: expiresAt,salesCount: _count,eType: _eType}));\r\n        auctionByTokenId[msg.sender].push(auctionId);\r\n        /**\r\n        if(owner != msg.sender){\r\n            require(_transferEggMk(msg.sender,owner,_count,_eType,_level));\r\n\r\n            require(acceptedToken.transferFrom(\r\n                    msg.sender,\r\n                    owner,\r\n                    publicationFeeInWei.mul(_count)\r\n                ));\r\n        }*/\r\n        emit AuctionCreated(auctionId,msg.sender,priceInWei,expiresAt,_count,_eType);\r\n    }\r\n    function cancelEggAuction(uint256 _auctionId) public whenNotPaused {\r\n        uint256 i = _getAuctionIndex(_auctionId,msg.sender);\r\n        uint256 salesCount = auctions[_auctionId].salesCount;\r\n        require(i>=0 || msg.sender == owner);\r\n        /**\r\n        if(msg.sender != owner){\r\n            require(acceptedToken.transferFrom(\r\n                    owner,\r\n                    msg.sender,\r\n                    publicationFeeInWei.mul(salesCount)\r\n                ));\r\n        }*/\r\n        delete auctionByTokenId[msg.sender][i];\r\n        delete auctions[_auctionId];\r\n\r\n        emit AuctionCancelled(_auctionId, salesCount, msg.sender);\r\n    }\r\n\r\n    function executeEggAuction(uint256 _auctionId,uint256 _count) public payable whenNotPaused {\r\n        address seller = auctions[_auctionId].seller;\r\n        //require(seller != address(0));\r\n        require(seller != msg.sender);\r\n        require(auctions[_auctionId].salesCount > 0);\r\n        require(auctions[_auctionId].price.mul(_count) == msg.value);\r\n\r\n        uint8 eType = auctions[_auctionId].eType;\r\n        uint price = msg.value;\r\n        if(seller != owner){\r\n            uint saleFeeAmount = price.div(100);\r\n            uint256 sellerProceeds = price.sub(saleFeeAmount);\r\n            seller.transfer(sellerProceeds);\r\n        }\r\n        require(_transferEggMk(seller,msg.sender,_count,eType,0));\r\n        uint256 i = _getAuctionIndex(_auctionId,seller);\r\n        if(auctions[_auctionId].salesCount <= _count ){\r\n            delete auctions[_auctionId];\r\n            delete auctionByTokenId[owner][i];\r\n        }else{\r\n            auctions[_auctionId].salesCount = auctions[_auctionId].salesCount.sub(_count);\r\n        }\r\n\r\n        emit AuctionSuccessful(_auctionId,seller, price, msg.sender,_count,eType);\r\n    }\r\n    function getAuctions() external view returns (uint256,uint256[]) {\r\n        uint256[] memory result = new uint256[](auctions.length);\r\n        uint256 i;\r\n        for(i=0;i<auctions.length;i++){\r\n            result[i] = auctions[i].id;\r\n        }\r\n        return (auctions.length,result);\r\n    }\r\n\r\n    function getAuction(uint256 _id) external view returns (\r\n        uint256 id,\r\n        address seller,\r\n        uint256 price,\r\n        uint256 expiresAt,\r\n        uint256 salesCount,\r\n        uint8 eType\r\n    ) {\r\n        Auction storage auction = auctions[_id];\r\n        id =auction.id;\r\n        seller = auction.seller;\r\n        price = auction.price;\r\n        expiresAt = auction.expiresAt;\r\n        salesCount = auction.salesCount;\r\n        eType = auction.eType;\r\n    }\r\n}",
  "sourcePath": "/home/lwd/trufflepro/contracts/EggAuction.sol",
  "compiler": {
    "name": "solc",
    "version": "0.4.23+commit.124ca40d.Emscripten.clang"
  },
  "schemaVersion": "2.0.0",
  "updatedAt": "2018-05-15T03:59:04.327Z"
}