{
  "contractName": "EggAuctionCore",
  "abi": [
    {
      "constant": false,
      "inputs": [
        {
          "name": "_auctionId",
          "type": "uint256"
        },
        {
          "name": "_count",
          "type": "uint256"
        }
      ],
      "name": "executeEggAuction",
      "outputs": [],
      "payable": true,
      "stateMutability": "payable",
      "type": "function"
    },
    {
      "constant": true,
      "inputs": [
        {
          "name": "_eType",
          "type": "uint8"
        }
      ],
      "name": "getEggCount",
      "outputs": [
        {
          "name": "",
          "type": "uint256"
        }
      ],
      "payable": false,
      "stateMutability": "view",
      "type": "function"
    },
    {
      "constant": true,
      "inputs": [
        {
          "name": "",
          "type": "address"
        },
        {
          "name": "",
          "type": "uint256"
        }
      ],
      "name": "mappEggMk",
      "outputs": [
        {
          "name": "",
          "type": "uint256"
        }
      ],
      "payable": false,
      "stateMutability": "view",
      "type": "function"
    },
    {
      "constant": true,
      "inputs": [],
      "name": "nonFungibleRegistry",
      "outputs": [
        {
          "name": "",
          "type": "address"
        }
      ],
      "payable": false,
      "stateMutability": "view",
      "type": "function"
    },
    {
      "constant": true,
      "inputs": [],
      "name": "totalCount",
      "outputs": [
        {
          "name": "",
          "type": "uint256"
        }
      ],
      "payable": false,
      "stateMutability": "view",
      "type": "function"
    },
    {
      "constant": true,
      "inputs": [
        {
          "name": "",
          "type": "address"
        },
        {
          "name": "",
          "type": "uint256"
        }
      ],
      "name": "auctionByTokenId",
      "outputs": [
        {
          "name": "",
          "type": "uint256"
        }
      ],
      "payable": false,
      "stateMutability": "view",
      "type": "function"
    },
    {
      "constant": false,
      "inputs": [],
      "name": "unpause",
      "outputs": [],
      "payable": false,
      "stateMutability": "nonpayable",
      "type": "function"
    },
    {
      "constant": true,
      "inputs": [],
      "name": "acceptedToken",
      "outputs": [
        {
          "name": "",
          "type": "address"
        }
      ],
      "payable": false,
      "stateMutability": "view",
      "type": "function"
    },
    {
      "constant": false,
      "inputs": [
        {
          "name": "_owner",
          "type": "address"
        }
      ],
      "name": "createInitEgg",
      "outputs": [],
      "payable": false,
      "stateMutability": "nonpayable",
      "type": "function"
    },
    {
      "constant": true,
      "inputs": [
        {
          "name": "",
          "type": "uint256"
        }
      ],
      "name": "auctions",
      "outputs": [
        {
          "name": "id",
          "type": "uint256"
        },
        {
          "name": "seller",
          "type": "address"
        },
        {
          "name": "name",
          "type": "string"
        },
        {
          "name": "price",
          "type": "uint256"
        },
        {
          "name": "expiresAt",
          "type": "uint256"
        },
        {
          "name": "salesCount",
          "type": "uint256"
        },
        {
          "name": "eType",
          "type": "uint8"
        }
      ],
      "payable": false,
      "stateMutability": "view",
      "type": "function"
    },
    {
      "constant": true,
      "inputs": [],
      "name": "paused",
      "outputs": [
        {
          "name": "",
          "type": "bool"
        }
      ],
      "payable": false,
      "stateMutability": "view",
      "type": "function"
    },
    {
      "constant": true,
      "inputs": [
        {
          "name": "_eType",
          "type": "uint8"
        }
      ],
      "name": "getAuctionByType",
      "outputs": [
        {
          "name": "",
          "type": "uint256"
        }
      ],
      "payable": false,
      "stateMutability": "view",
      "type": "function"
    },
    {
      "constant": true,
      "inputs": [
        {
          "name": "_index",
          "type": "uint256"
        }
      ],
      "name": "getEggByType",
      "outputs": [
        {
          "name": "owner",
          "type": "address"
        },
        {
          "name": "mkCount",
          "type": "uint256"
        },
        {
          "name": "eType",
          "type": "uint8"
        },
        {
          "name": "level",
          "type": "uint8"
        }
      ],
      "payable": false,
      "stateMutability": "view",
      "type": "function"
    },
    {
      "constant": false,
      "inputs": [
        {
          "name": "_level",
          "type": "uint8"
        },
        {
          "name": "_eType",
          "type": "uint8"
        },
        {
          "name": "_count",
          "type": "uint256"
        },
        {
          "name": "_owner",
          "type": "address"
        }
      ],
      "name": "createEgg",
      "outputs": [],
      "payable": false,
      "stateMutability": "nonpayable",
      "type": "function"
    },
    {
      "constant": false,
      "inputs": [
        {
          "name": "priceInWei",
          "type": "uint256"
        },
        {
          "name": "expiresAt",
          "type": "uint256"
        },
        {
          "name": "_count",
          "type": "uint256"
        },
        {
          "name": "_eType",
          "type": "uint8"
        },
        {
          "name": "_name",
          "type": "string"
        }
      ],
      "name": "createEggAuction",
      "outputs": [],
      "payable": true,
      "stateMutability": "payable",
      "type": "function"
    },
    {
      "constant": true,
      "inputs": [
        {
          "name": "_id",
          "type": "uint256"
        }
      ],
      "name": "getAuction",
      "outputs": [
        {
          "name": "id",
          "type": "uint256"
        },
        {
          "name": "seller",
          "type": "address"
        },
        {
          "name": "name",
          "type": "string"
        },
        {
          "name": "price",
          "type": "uint256"
        },
        {
          "name": "expiresAt",
          "type": "uint256"
        },
        {
          "name": "salesCount",
          "type": "uint256"
        },
        {
          "name": "eType",
          "type": "uint8"
        }
      ],
      "payable": false,
      "stateMutability": "view",
      "type": "function"
    },
    {
      "constant": false,
      "inputs": [],
      "name": "pause",
      "outputs": [],
      "payable": false,
      "stateMutability": "nonpayable",
      "type": "function"
    },
    {
      "constant": true,
      "inputs": [],
      "name": "owner",
      "outputs": [
        {
          "name": "",
          "type": "address"
        }
      ],
      "payable": false,
      "stateMutability": "view",
      "type": "function"
    },
    {
      "constant": true,
      "inputs": [],
      "name": "publicationFeeInWei",
      "outputs": [
        {
          "name": "",
          "type": "uint256"
        }
      ],
      "payable": false,
      "stateMutability": "view",
      "type": "function"
    },
    {
      "constant": true,
      "inputs": [],
      "name": "createdCount",
      "outputs": [
        {
          "name": "",
          "type": "uint256"
        }
      ],
      "payable": false,
      "stateMutability": "view",
      "type": "function"
    },
    {
      "constant": false,
      "inputs": [
        {
          "name": "_from",
          "type": "address"
        },
        {
          "name": "_to",
          "type": "address"
        },
        {
          "name": "_count",
          "type": "uint256"
        },
        {
          "name": "_eType",
          "type": "uint8"
        },
        {
          "name": "_level",
          "type": "uint8"
        }
      ],
      "name": "transferEggMk",
      "outputs": [
        {
          "name": "",
          "type": "bool"
        }
      ],
      "payable": false,
      "stateMutability": "nonpayable",
      "type": "function"
    },
    {
      "constant": true,
      "inputs": [],
      "name": "CREATION_LIMIT",
      "outputs": [
        {
          "name": "",
          "type": "uint256"
        }
      ],
      "payable": false,
      "stateMutability": "view",
      "type": "function"
    },
    {
      "constant": true,
      "inputs": [],
      "name": "getAuctions",
      "outputs": [
        {
          "name": "",
          "type": "uint256"
        },
        {
          "name": "",
          "type": "uint256[]"
        }
      ],
      "payable": false,
      "stateMutability": "view",
      "type": "function"
    },
    {
      "constant": false,
      "inputs": [
        {
          "name": "amount",
          "type": "uint256"
        }
      ],
      "name": "withdrawBalance",
      "outputs": [],
      "payable": false,
      "stateMutability": "nonpayable",
      "type": "function"
    },
    {
      "constant": false,
      "inputs": [
        {
          "name": "_auctionId",
          "type": "uint256"
        }
      ],
      "name": "cancelEggAuction",
      "outputs": [],
      "payable": false,
      "stateMutability": "nonpayable",
      "type": "function"
    },
    {
      "constant": true,
      "inputs": [],
      "name": "TRANSFER_STAND",
      "outputs": [
        {
          "name": "",
          "type": "uint256"
        }
      ],
      "payable": false,
      "stateMutability": "view",
      "type": "function"
    },
    {
      "constant": true,
      "inputs": [
        {
          "name": "_address",
          "type": "address"
        }
      ],
      "name": "getEggList",
      "outputs": [
        {
          "name": "",
          "type": "uint256[]"
        }
      ],
      "payable": false,
      "stateMutability": "view",
      "type": "function"
    },
    {
      "constant": false,
      "inputs": [
        {
          "name": "newOwner",
          "type": "address"
        }
      ],
      "name": "transferOwnership",
      "outputs": [],
      "payable": false,
      "stateMutability": "nonpayable",
      "type": "function"
    },
    {
      "inputs": [
        {
          "name": "_acceptedToken",
          "type": "address"
        },
        {
          "name": "_nonFungibleRegistry",
          "type": "address"
        }
      ],
      "payable": false,
      "stateMutability": "nonpayable",
      "type": "constructor"
    },
    {
      "anonymous": false,
      "inputs": [
        {
          "indexed": false,
          "name": "id",
          "type": "uint256"
        },
        {
          "indexed": true,
          "name": "from",
          "type": "address"
        },
        {
          "indexed": true,
          "name": "to",
          "type": "address"
        },
        {
          "indexed": false,
          "name": "priceInWei",
          "type": "uint256"
        },
        {
          "indexed": false,
          "name": "time",
          "type": "uint256"
        },
        {
          "indexed": false,
          "name": "count",
          "type": "uint256"
        },
        {
          "indexed": false,
          "name": "eType",
          "type": "uint8"
        }
      ],
      "name": "ExchangeCreated",
      "type": "event"
    },
    {
      "anonymous": false,
      "inputs": [
        {
          "indexed": false,
          "name": "id",
          "type": "uint256"
        },
        {
          "indexed": true,
          "name": "seller",
          "type": "address"
        },
        {
          "indexed": false,
          "name": "priceInWei",
          "type": "uint256"
        },
        {
          "indexed": false,
          "name": "expiresAt",
          "type": "uint256"
        },
        {
          "indexed": false,
          "name": "salesCount",
          "type": "uint256"
        },
        {
          "indexed": false,
          "name": "eType",
          "type": "uint8"
        }
      ],
      "name": "AuctionCreated",
      "type": "event"
    },
    {
      "anonymous": false,
      "inputs": [
        {
          "indexed": false,
          "name": "id",
          "type": "uint256"
        },
        {
          "indexed": true,
          "name": "seller",
          "type": "address"
        },
        {
          "indexed": false,
          "name": "totalPrice",
          "type": "uint256"
        },
        {
          "indexed": true,
          "name": "winner",
          "type": "address"
        },
        {
          "indexed": false,
          "name": "salesCount",
          "type": "uint256"
        },
        {
          "indexed": false,
          "name": "time",
          "type": "uint256"
        },
        {
          "indexed": false,
          "name": "eType",
          "type": "uint8"
        }
      ],
      "name": "AuctionSuccessful",
      "type": "event"
    },
    {
      "anonymous": false,
      "inputs": [
        {
          "indexed": false,
          "name": "id",
          "type": "uint256"
        },
        {
          "indexed": false,
          "name": "count",
          "type": "uint256"
        },
        {
          "indexed": true,
          "name": "seller",
          "type": "address"
        },
        {
          "indexed": false,
          "name": "time",
          "type": "uint256"
        }
      ],
      "name": "AuctionCancelled",
      "type": "event"
    },
    {
      "anonymous": false,
      "inputs": [
        {
          "indexed": false,
          "name": "_level",
          "type": "uint8"
        },
        {
          "indexed": false,
          "name": "_eType",
          "type": "uint8"
        },
        {
          "indexed": false,
          "name": "_count",
          "type": "uint256"
        },
        {
          "indexed": true,
          "name": "_owner",
          "type": "address"
        }
      ],
      "name": "EggMkCreated",
      "type": "event"
    },
    {
      "anonymous": false,
      "inputs": [
        {
          "indexed": true,
          "name": "_from",
          "type": "address"
        },
        {
          "indexed": true,
          "name": "_to",
          "type": "address"
        },
        {
          "indexed": false,
          "name": "_count",
          "type": "uint256"
        },
        {
          "indexed": false,
          "name": "_eType",
          "type": "uint8"
        },
        {
          "indexed": false,
          "name": "_level",
          "type": "uint8"
        }
      ],
      "name": "TransferEggMk",
      "type": "event"
    },
    {
      "anonymous": false,
      "inputs": [
        {
          "indexed": false,
          "name": "_level",
          "type": "uint8"
        },
        {
          "indexed": false,
          "name": "_eType",
          "type": "uint8"
        },
        {
          "indexed": false,
          "name": "_count",
          "type": "uint256"
        },
        {
          "indexed": true,
          "name": "_owner",
          "type": "address"
        }
      ],
      "name": "EggMkUpdated",
      "type": "event"
    },
    {
      "anonymous": false,
      "inputs": [],
      "name": "Pause",
      "type": "event"
    },
    {
      "anonymous": false,
      "inputs": [],
      "name": "Unpause",
      "type": "event"
    },
    {
      "constant": false,
      "inputs": [
        {
          "name": "_auctionId",
          "type": "uint256"
        },
        {
          "name": "_count",
          "type": "uint256"
        },
        {
          "name": "_eType",
          "type": "uint8"
        },
        {
          "name": "_level",
          "type": "uint8"
        }
      ],
      "name": "exchangeEggToDDC",
      "outputs": [],
      "payable": true,
      "stateMutability": "payable",
      "type": "function"
    },
    {
      "constant": false,
      "inputs": [
        {
          "name": "_count",
          "type": "uint256"
        },
        {
          "name": "_eType",
          "type": "uint8"
        },
        {
          "name": "_level",
          "type": "uint8"
        }
      ],
      "name": "exchangeDDCToEgg",
      "outputs": [],
      "payable": true,
      "stateMutability": "payable",
      "type": "function"
    }
  ],
  "bytecode": "0x608060405260008060146101000a81548160ff021916908315150217905550678ac7230489e8000060095534801561003657600080fd5b506040516040806136288339810180604052810190808051906020019092919080519060200190929190505050336000806101000a81548173ffffffffffffffffffffffffffffffffffffffff021916908373ffffffffffffffffffffffffffffffffffffffff16021790555081600360006101000a81548173ffffffffffffffffffffffffffffffffffffffff021916908373ffffffffffffffffffffffffffffffffffffffff16021790555080600460006101000a81548173ffffffffffffffffffffffffffffffffffffffff021916908373ffffffffffffffffffffffffffffffffffffffff16021790555050506134f2806101366000396000f300608060405260043610610180576000357c0100000000000000000000000000000000000000000000000000000000900463ffffffff1680631646f3bf146101855780631ef18b15146101af5780632534cfe3146101f357806329f68751146102545780632be798331461028e57806334eafb11146102e557806339f5be76146103105780633f4ba83a14610371578063451c3d80146103885780634e0fb911146103df578063571a26a0146104225780635c975abb1461052457806361e74e3d146105535780636a5a31e11461059757806375a2af91146106255780637858d2a41461068c57806378bd7935146107135780638456cb59146108155780638da5cb5b1461082c578063ae4f119814610883578063c06c54d3146108ae578063c3147346146108f2578063d68866ca1461091d578063d72b6d3b146109bc578063d7c06919146109e7578063da76d5cd14610a5a578063e05fe5c414610a87578063e439017914610ab4578063eb5c81c414610adf578063f2fde38b14610b77575b600080fd5b6101ad6004803603810190808035906020019092919080359060200190929190505050610bba565b005b3480156101bb57600080fd5b506101dd600480360381019080803560ff16906020019092919050505061100e565b6040518082815260200191505060405180910390f35b3480156101ff57600080fd5b5061023e600480360381019080803573ffffffffffffffffffffffffffffffffffffffff16906020019092919080359060200190929190505050611034565b6040518082815260200191505060405180910390f35b61028c60048036038101908080359060200190929190803560ff169060200190929190803560ff169060200190929190505050611064565b005b34801561029a57600080fd5b506102a3611447565b604051808273ffffffffffffffffffffffffffffffffffffffff1673ffffffffffffffffffffffffffffffffffffffff16815260200191505060405180910390f35b3480156102f157600080fd5b506102fa61146d565b6040518082815260200191505060405180910390f35b34801561031c57600080fd5b5061035b600480360381019080803573ffffffffffffffffffffffffffffffffffffffff16906020019092919080359060200190929190505050611473565b6040518082815260200191505060405180910390f35b34801561037d57600080fd5b506103866114a3565b005b34801561039457600080fd5b5061039d611561565b604051808273ffffffffffffffffffffffffffffffffffffffff1673ffffffffffffffffffffffffffffffffffffffff16815260200191505060405180910390f35b3480156103eb57600080fd5b50610420600480360381019080803573ffffffffffffffffffffffffffffffffffffffff169060200190929190505050611587565b005b34801561042e57600080fd5b5061044d60048036038101908080359060200190929190505050611613565b604051808881526020018773ffffffffffffffffffffffffffffffffffffffff1673ffffffffffffffffffffffffffffffffffffffff168152602001806020018681526020018581526020018481526020018360ff1660ff168152602001828103825287818151815260200191508051906020019080838360005b838110156104e35780820151818401526020810190506104c8565b50505050905090810190601f1680156105105780820380516001836020036101000a031916815260200191505b509850505050505050505060405180910390f35b34801561053057600080fd5b50610539611729565b604051808215151515815260200191505060405180910390f35b34801561055f57600080fd5b50610581600480360381019080803560ff16906020019092919050505061173c565b6040518082815260200191505060405180910390f35b3480156105a357600080fd5b506105c26004803603810190808035906020019092919050505061174f565b604051808573ffffffffffffffffffffffffffffffffffffffff1673ffffffffffffffffffffffffffffffffffffffff1681526020018481526020018360ff1660ff1681526020018260ff1660ff16815260200194505050505060405180910390f35b34801561063157600080fd5b5061068a600480360381019080803560ff169060200190929190803560ff16906020019092919080359060200190929190803573ffffffffffffffffffffffffffffffffffffffff1690602001909291905050506117d4565b005b610711600480360381019080803590602001909291908035906020019092919080359060200190929190803560ff169060200190929190803590602001908201803590602001908080601f0160208091040260200160405190810160405280939291908181526020018383808284378201915050505050509192919290505050611842565b005b34801561071f57600080fd5b5061073e60048036038101908080359060200190929190505050611b22565b604051808881526020018773ffffffffffffffffffffffffffffffffffffffff1673ffffffffffffffffffffffffffffffffffffffff168152602001806020018681526020018581526020018481526020018360ff1660ff168152602001828103825287818151815260200191508051906020019080838360005b838110156107d45780820151818401526020810190506107b9565b50505050905090810190601f1680156108015780820380516001836020036101000a031916815260200191505b509850505050505050505060405180910390f35b34801561082157600080fd5b5061082a611c50565b005b34801561083857600080fd5b50610841611d10565b604051808273ffffffffffffffffffffffffffffffffffffffff1673ffffffffffffffffffffffffffffffffffffffff16815260200191505060405180910390f35b34801561088f57600080fd5b50610898611d35565b6040518082815260200191505060405180910390f35b6108f06004803603810190808035906020019092919080359060200190929190803560ff169060200190929190803560ff169060200190929190505050611d3b565b005b3480156108fe57600080fd5b50610907612016565b6040518082815260200191505060405180910390f35b34801561092957600080fd5b506109a2600480360381019080803573ffffffffffffffffffffffffffffffffffffffff169060200190929190803573ffffffffffffffffffffffffffffffffffffffff16906020019092919080359060200190929190803560ff169060200190929190803560ff16906020019092919050505061201c565b604051808215151515815260200191505060405180910390f35b3480156109c857600080fd5b506109d16120b3565b6040518082815260200191505060405180910390f35b3480156109f357600080fd5b506109fc6120ba565b6040518083815260200180602001828103825283818151815260200191508051906020019060200280838360005b83811015610a45578082015181840152602081019050610a2a565b50505050905001935050505060405180910390f35b348015610a6657600080fd5b50610a8560048036038101908080359060200190929190505050612165565b005b348015610a9357600080fd5b50610ab260048036038101908080359060200190929190505050612251565b005b348015610ac057600080fd5b50610ac961244e565b6040518082815260200191505060405180910390f35b348015610aeb57600080fd5b50610b20600480360381019080803573ffffffffffffffffffffffffffffffffffffffff169060200190929190505050612453565b6040518080602001828103825283818151815260200191508051906020019060200280838360005b83811015610b63578082015181840152602081019050610b48565b505050509050019250505060405180910390f35b348015610b8357600080fd5b50610bb8600480360381019080803573ffffffffffffffffffffffffffffffffffffffff1690602001909291905050506124ea565b005b600080600080600080600060149054906101000a900460ff16151515610bdf57600080fd5b600788815481101515610bee57fe5b906000526020600020906007020160010160009054906101000a900473ffffffffffffffffffffffffffffffffffffffff1695503373ffffffffffffffffffffffffffffffffffffffff168673ffffffffffffffffffffffffffffffffffffffff1614151515610c5d57600080fd5b6000600789815481101515610c6e57fe5b906000526020600020906007020160050154111515610c8c57600080fd5b34610cc08860078b815481101515610ca057fe5b9060005260206000209060070201600301546125bf90919063ffffffff16565b141515610ccc57600080fd5b600788815481101515610cdb57fe5b906000526020600020906007020160060160009054906101000a900460ff1694503493506000809054906101000a900473ffffffffffffffffffffffffffffffffffffffff1673ffffffffffffffffffffffffffffffffffffffff168673ffffffffffffffffffffffffffffffffffffffff16141515610dc857610d696064856125f290919063ffffffff16565b9250610d7e838561260d90919063ffffffff16565b91508573ffffffffffffffffffffffffffffffffffffffff166108fc839081150290604051600060405180830381858888f19350505050158015610dc6573d6000803e3d6000fd5b505b610dd6863389886000612626565b1515610de157600080fd5b610deb8887612a59565b905086600789815481101515610dfd57fe5b906000526020600020906007020160050154111515610f2157600788815481101515610e2557fe5b90600052602060002090600702016000808201600090556001820160006101000a81549073ffffffffffffffffffffffffffffffffffffffff0219169055600282016000610e739190613394565b6003820160009055600482016000905560058201600090556006820160006101000a81549060ff02191690555050600860008060009054906101000a900473ffffffffffffffffffffffffffffffffffffffff1673ffffffffffffffffffffffffffffffffffffffff1673ffffffffffffffffffffffffffffffffffffffff16815260200190815260200160002081815481101515610f0e57fe5b9060005260206000200160009055610f79565b610f548760078a815481101515610f3457fe5b90600052602060002090600702016005015461260d90919063ffffffff16565b600789815481101515610f6357fe5b9060005260206000209060070201600501819055505b3373ffffffffffffffffffffffffffffffffffffffff168673ffffffffffffffffffffffffffffffffffffffff167f0d28af0548e1f6af8374dcaa0d8673e7bc7a060f777c571ac110a5e009a174cc8a878b428b604051808681526020018581526020018481526020018381526020018260ff1660ff1681526020019550505050505060405180910390a35050505050505050565b600060148260ff161115151561102357600080fd5b61102d3383612b25565b9050919050565b60026020528160005260406000208181548110151561104f57fe5b90600052602060002001600091509150505481565b60008060149054906101000a900460ff1615151561108157600080fd5b60008411151561109057600080fd5b60008360ff16101580156110a8575060148360ff1611155b15156110b357600080fd5b6110bd3384612b25565b905083811115156110cd57600080fd5b83600360009054906101000a900473ffffffffffffffffffffffffffffffffffffffff1673ffffffffffffffffffffffffffffffffffffffff166370a08231336040518263ffffffff167c0100000000000000000000000000000000000000000000000000000000028152600401808273ffffffffffffffffffffffffffffffffffffffff1673ffffffffffffffffffffffffffffffffffffffff168152602001915050602060405180830381600087803b15801561118b57600080fd5b505af115801561119f573d6000803e3d6000fd5b505050506040513d60208110156111b557600080fd5b8101908080519060200190929190505050101515156111d357600080fd5b600360009054906101000a900473ffffffffffffffffffffffffffffffffffffffff1673ffffffffffffffffffffffffffffffffffffffff166323b872dd336000809054906101000a900473ffffffffffffffffffffffffffffffffffffffff16611249886009546125bf90919063ffffffff16565b6040518463ffffffff167c0100000000000000000000000000000000000000000000000000000000028152600401808473ffffffffffffffffffffffffffffffffffffffff1673ffffffffffffffffffffffffffffffffffffffff1681526020018373ffffffffffffffffffffffffffffffffffffffff1673ffffffffffffffffffffffffffffffffffffffff1681526020018281526020019350505050602060405180830381600087803b15801561130157600080fd5b505af1158015611315573d6000803e3d6000fd5b505050506040513d602081101561132b57600080fd5b8101908080519060200190929190505050151561134757600080fd5b611375336000809054906101000a900473ffffffffffffffffffffffffffffffffffffffff16868686612626565b151561138057600080fd5b3373ffffffffffffffffffffffffffffffffffffffff166000809054906101000a900473ffffffffffffffffffffffffffffffffffffffff1673ffffffffffffffffffffffffffffffffffffffff167f3f4776ed680e74e87c58972cbba1c0ca203406135f20bf5584fac55a4c1b63a66000611407886009546125bf90919063ffffffff16565b428989604051808681526020018581526020018481526020018381526020018260ff1660ff1681526020019550505050505060405180910390a350505050565b600460009054906101000a900473ffffffffffffffffffffffffffffffffffffffff1681565b60055481565b60086020528160005260406000208181548110151561148e57fe5b90600052602060002001600091509150505481565b6000809054906101000a900473ffffffffffffffffffffffffffffffffffffffff1673ffffffffffffffffffffffffffffffffffffffff163373ffffffffffffffffffffffffffffffffffffffff161415156114fe57600080fd5b600060149054906101000a900460ff16151561151957600080fd5b60008060146101000a81548160ff0219169083151502179055507f7805862f689e2f13df9f062ff482ad3ad112aca9e0847911ed832e158c525b3360405160405180910390a1565b600360009054906101000a900473ffffffffffffffffffffffffffffffffffffffff1681565b6000809054906101000a900473ffffffffffffffffffffffffffffffffffffffff1673ffffffffffffffffffffffffffffffffffffffff163373ffffffffffffffffffffffffffffffffffffffff161415156115e257600080fd5b6207a1206006541015156115f557600080fd5b6116056000806207a12084612d11565b506207a12060068190555050565b60078181548110151561162257fe5b90600052602060002090600702016000915090508060000154908060010160009054906101000a900473ffffffffffffffffffffffffffffffffffffffff1690806002018054600181600116156101000203166002900480601f0160208091040260200160405190810160405280929190818152602001828054600181600116156101000203166002900480156116fa5780601f106116cf576101008083540402835291602001916116fa565b820191906000526020600020905b8154815290600101906020018083116116dd57829003601f168201915b5050505050908060030154908060040154908060050154908060060160009054906101000a900460ff16905087565b600060149054906101000a900460ff1681565b600061174882336131e7565b9050919050565b600080600080600060018681548110151561176657fe5b906000526020600020906003020190508060000160009054906101000a900473ffffffffffffffffffffffffffffffffffffffff1681600101548260020160009054906101000a900460ff168360020160019054906101000a900460ff169450945094509450509193509193565b6000809054906101000a900473ffffffffffffffffffffffffffffffffffffffff1673ffffffffffffffffffffffffffffffffffffffff163373ffffffffffffffffffffffffffffffffffffffff1614151561182f57600080fd5b61183b84848484612d11565b5050505050565b60008060008060149054906101000a900460ff1615151561186257600080fd5b600073ffffffffffffffffffffffffffffffffffffffff163373ffffffffffffffffffffffffffffffffffffffff161415151561189e57600080fd5b60148560ff16111515156118b157600080fd5b600186101515156118c157600080fd5b6000881115156118d057600080fd5b6118da85336131e7565b92506118e63386612b25565b9150816118fc848861337690919063ffffffff16565b1115151561190957600080fd5b6007805490509050600760e0604051908101604052808381526020013373ffffffffffffffffffffffffffffffffffffffff1681526020018681526020018a81526020018981526020018881526020018760ff16815250908060018154018082558091505090600182039060005260206000209060070201600090919290919091506000820151816000015560208201518160010160006101000a81548173ffffffffffffffffffffffffffffffffffffffff021916908373ffffffffffffffffffffffffffffffffffffffff16021790555060408201518160020190805190602001906119f89291906133dc565b50606082015181600301556080820151816004015560a0820151816005015560c08201518160060160006101000a81548160ff021916908360ff160217905550505050600860003373ffffffffffffffffffffffffffffffffffffffff1673ffffffffffffffffffffffffffffffffffffffff1681526020019081526020016000208190806001815401808255809150509060018203906000526020600020016000909192909190915055503373ffffffffffffffffffffffffffffffffffffffff167fded44d85ac7c09528117e66c774bc3d55d381b31d4b6ac2c58248647e22be978828a428a8a604051808681526020018581526020018481526020018381526020018260ff1660ff1681526020019550505050505060405180910390a25050505050505050565b60008060606000806000806000600789815481101515611b3e57fe5b90600052602060002090600702019050806000015497508060010160009054906101000a900473ffffffffffffffffffffffffffffffffffffffff169650806002018054600181600116156101000203166002900480601f016020809104026020016040519081016040528092919081815260200182805460018160011615610100020316600290048015611c145780601f10611be957610100808354040283529160200191611c14565b820191906000526020600020905b815481529060010190602001808311611bf757829003601f168201915b505050505095508060030154945080600401549350806005015492508060060160009054906101000a900460ff16915050919395979092949650565b6000809054906101000a900473ffffffffffffffffffffffffffffffffffffffff1673ffffffffffffffffffffffffffffffffffffffff163373ffffffffffffffffffffffffffffffffffffffff16141515611cab57600080fd5b600060149054906101000a900460ff16151515611cc757600080fd5b6001600060146101000a81548160ff0219169083151502179055507f6985a02210a168e66602d3235cb6db0e70f92b3ba4d376a33c0f3d9434bff62560405160405180910390a1565b6000809054906101000a900473ffffffffffffffffffffffffffffffffffffffff1681565b60095481565b600080600060149054906101000a900460ff16151515611d5a57600080fd5b611d643385612b25565b91508482111515611d7457600080fd5b611d7e84336131e7565b905081611d94828761337690919063ffffffff16565b11151515611da157600080fd5b600360009054906101000a900473ffffffffffffffffffffffffffffffffffffffff1673ffffffffffffffffffffffffffffffffffffffff166323b872dd6000809054906101000a900473ffffffffffffffffffffffffffffffffffffffff1633611e17896009546125bf90919063ffffffff16565b6040518463ffffffff167c0100000000000000000000000000000000000000000000000000000000028152600401808473ffffffffffffffffffffffffffffffffffffffff1673ffffffffffffffffffffffffffffffffffffffff1681526020018373ffffffffffffffffffffffffffffffffffffffff1673ffffffffffffffffffffffffffffffffffffffff1681526020018281526020019350505050602060405180830381600087803b158015611ecf57600080fd5b505af1158015611ee3573d6000803e3d6000fd5b505050506040513d6020811015611ef957600080fd5b81019080805190602001909291905050501515611f1557600080fd5b611f43336000809054906101000a900473ffffffffffffffffffffffffffffffffffffffff16878787612626565b1515611f4e57600080fd5b6000809054906101000a900473ffffffffffffffffffffffffffffffffffffffff1673ffffffffffffffffffffffffffffffffffffffff163373ffffffffffffffffffffffffffffffffffffffff167f3f4776ed680e74e87c58972cbba1c0ca203406135f20bf5584fac55a4c1b63a688611fd4896009546125bf90919063ffffffff16565b428a8a604051808681526020018581526020018481526020018381526020018260ff1660ff1681526020019550505050505060405180910390a3505050505050565b60065481565b60008060009054906101000a900473ffffffffffffffffffffffffffffffffffffffff1673ffffffffffffffffffffffffffffffffffffffff163373ffffffffffffffffffffffffffffffffffffffff1614151561207957600080fd5b60148360ff161115151561208c57600080fd5b6001841015151561209c57600080fd5b6120a98686868686612626565b5095945050505050565b6207a12081565b600060608060006007805490506040519080825280602002602001820160405280156120f55781602001602082028038833980820191505090505b509150600090505b6007805490508110156121545760078181548110151561211957fe5b906000526020600020906007020160000154828281518110151561213957fe5b906020019060200201818152505080806001019150506120fd565b600780549050829350935050509091565b60008060009054906101000a900473ffffffffffffffffffffffffffffffffffffffff1673ffffffffffffffffffffffffffffffffffffffff163373ffffffffffffffffffffffffffffffffffffffff161415156121c257600080fd5b3073ffffffffffffffffffffffffffffffffffffffff163190508181111561224d576000809054906101000a900473ffffffffffffffffffffffffffffffffffffffff1673ffffffffffffffffffffffffffffffffffffffff166108fc839081150290604051600060405180830381858888f1935050505015801561224b573d6000803e3d6000fd5b505b5050565b600080600060149054906101000a900460ff1615151561227057600080fd5b61227a8333612a59565b915060078381548110151561228b57fe5b90600052602060002090600702016005015490506000821015806122fb57506000809054906101000a900473ffffffffffffffffffffffffffffffffffffffff1673ffffffffffffffffffffffffffffffffffffffff163373ffffffffffffffffffffffffffffffffffffffff16145b151561230657600080fd5b600860003373ffffffffffffffffffffffffffffffffffffffff1673ffffffffffffffffffffffffffffffffffffffff1681526020019081526020016000208281548110151561235257fe5b906000526020600020016000905560078381548110151561236f57fe5b90600052602060002090600702016000808201600090556001820160006101000a81549073ffffffffffffffffffffffffffffffffffffffff02191690556002820160006123bd9190613394565b6003820160009055600482016000905560058201600090556006820160006101000a81549060ff021916905550503373ffffffffffffffffffffffffffffffffffffffff167f3d079bbf692b85a52e27da7ac4338d11acee4c75a6dd13ebf50a6d81c9edf40b84834260405180848152602001838152602001828152602001935050505060405180910390a2505050565b600a81565b6060600260008373ffffffffffffffffffffffffffffffffffffffff1673ffffffffffffffffffffffffffffffffffffffff1681526020019081526020016000208054806020026020016040519081016040528092919081815260200182805480156124de57602002820191906000526020600020905b8154815260200190600101908083116124ca575b50505050509050919050565b6000809054906101000a900473ffffffffffffffffffffffffffffffffffffffff1673ffffffffffffffffffffffffffffffffffffffff163373ffffffffffffffffffffffffffffffffffffffff1614151561254557600080fd5b600073ffffffffffffffffffffffffffffffffffffffff168173ffffffffffffffffffffffffffffffffffffffff161415156125bc57806000806101000a81548173ffffffffffffffffffffffffffffffffffffffff021916908373ffffffffffffffffffffffffffffffffffffffff1602179055505b50565b600080828402905060008414806125e057508284828115156125dd57fe5b04145b15156125e857fe5b8091505092915050565b600080828481151561260057fe5b0490508091505092915050565b600082821115151561261b57fe5b818303905092915050565b600080600060148560ff161115151561263e57600080fd5b6001861015151561264e57600080fd5b600090506000600260008a73ffffffffffffffffffffffffffffffffffffffff1673ffffffffffffffffffffffffffffffffffffffff168152602001908152602001600020805490501115612a4b57600091505b600260008973ffffffffffffffffffffffffffffffffffffffff1673ffffffffffffffffffffffffffffffffffffffff16815260200190815260200160002080549050821015612a4a578460ff166001600260008b73ffffffffffffffffffffffffffffffffffffffff1673ffffffffffffffffffffffffffffffffffffffff1681526020019081526020016000208481548110151561273e57fe5b906000526020600020015481548110151561275557fe5b906000526020600020906003020160020160009054906101000a900460ff1660ff161415612a3d57856001600260008b73ffffffffffffffffffffffffffffffffffffffff1673ffffffffffffffffffffffffffffffffffffffff168152602001908152602001600020848154811015156127cc57fe5b90600052602060002001548154811015156127e357fe5b9060005260206000209060030201600101541415612927576001600260008a73ffffffffffffffffffffffffffffffffffffffff1673ffffffffffffffffffffffffffffffffffffffff1681526020019081526020016000208381548110151561284957fe5b906000526020600020015481548110151561286057fe5b9060005260206000209060030201600080820160006101000a81549073ffffffffffffffffffffffffffffffffffffffff021916905560018201600090556002820160006101000a81549060ff02191690556002820160016101000a81549060ff02191690555050600260008973ffffffffffffffffffffffffffffffffffffffff1673ffffffffffffffffffffffffffffffffffffffff1681526020019081526020016000208281548110151561291457fe5b9060005260206000200160009055612a2b565b6129b0866001600260008c73ffffffffffffffffffffffffffffffffffffffff1673ffffffffffffffffffffffffffffffffffffffff1681526020019081526020016000208581548110151561297957fe5b906000526020600020015481548110151561299057fe5b90600052602060002090600302016001015461260d90919063ffffffff16565b6001600260008b73ffffffffffffffffffffffffffffffffffffffff1673ffffffffffffffffffffffffffffffffffffffff168152602001908152602001600020848154811015156129fe57fe5b9060005260206000200154815481101515612a1557fe5b9060005260206000209060030201600101819055505b612a378486888a612d11565b50600190505b81806001019250506126a2565b5b809250505095945050505050565b600080600090505b600860008473ffffffffffffffffffffffffffffffffffffffff1673ffffffffffffffffffffffffffffffffffffffff16815260200190815260200160002080549050811015612b1b5783600860008573ffffffffffffffffffffffffffffffffffffffff1673ffffffffffffffffffffffffffffffffffffffff16815260200190815260200160002082815481101515612af857fe5b90600052602060002001541415612b0e57612b1b565b8080600101915050612a61565b8091505092915050565b600080600060148460ff1611151515612b3d57600080fd5b600090506000600260008773ffffffffffffffffffffffffffffffffffffffff1673ffffffffffffffffffffffffffffffffffffffff168152602001908152602001600020805490501115612d0657600091505b600260008673ffffffffffffffffffffffffffffffffffffffff1673ffffffffffffffffffffffffffffffffffffffff16815260200190815260200160002080549050821015612d05578360ff166001600260008873ffffffffffffffffffffffffffffffffffffffff1673ffffffffffffffffffffffffffffffffffffffff16815260200190815260200160002084815481101515612c2d57fe5b9060005260206000200154815481101515612c4457fe5b906000526020600020906003020160020160009054906101000a900460ff1660ff161415612cf857612cf56001600260008873ffffffffffffffffffffffffffffffffffffffff1673ffffffffffffffffffffffffffffffffffffffff16815260200190815260200160002084815481101515612cbd57fe5b9060005260206000200154815481101515612cd457fe5b9060005260206000209060030201600101548261337690919063ffffffff16565b90505b8180600101925050612b91565b5b809250505092915050565b6000806000612d1e61345c565b600060148860ff1611151515612d3357600080fd5b600092506000600260008873ffffffffffffffffffffffffffffffffffffffff1673ffffffffffffffffffffffffffffffffffffffff168152602001908152602001600020805490501115612fe257600093505b600260008773ffffffffffffffffffffffffffffffffffffffff1673ffffffffffffffffffffffffffffffffffffffff16815260200190815260200160002080549050841015612fe1578760ff166001600260008973ffffffffffffffffffffffffffffffffffffffff1673ffffffffffffffffffffffffffffffffffffffff16815260200190815260200160002086815481101515612e2357fe5b9060005260206000200154815481101515612e3a57fe5b906000526020600020906003020160020160009054906101000a900460ff1660ff161415612fd457612eeb876001600260008a73ffffffffffffffffffffffffffffffffffffffff1673ffffffffffffffffffffffffffffffffffffffff16815260200190815260200160002087815481101515612eb457fe5b9060005260206000200154815481101515612ecb57fe5b90600052602060002090600302016001015461337690919063ffffffff16565b6001600260008973ffffffffffffffffffffffffffffffffffffffff1673ffffffffffffffffffffffffffffffffffffffff16815260200190815260200160002086815481101515612f3957fe5b9060005260206000200154815481101515612f5057fe5b9060005260206000209060030201600101819055508573ffffffffffffffffffffffffffffffffffffffff167f2854b136bf4fd3085f86deb8425ff9a48c39eb51c3b0276d3f75f46c648681db8a8a8a604051808460ff1660ff1681526020018360ff1660ff168152602001828152602001935050505060405180910390a2600192505b8380600101945050612d87565b5b8215156131d4576080604051908101604052808773ffffffffffffffffffffffffffffffffffffffff1681526020018881526020018960ff1681526020018a60ff1681525091506130fe600180849080600181540180825580915050906001820390600052602060002090600302016000909192909190915060008201518160000160006101000a81548173ffffffffffffffffffffffffffffffffffffffff021916908373ffffffffffffffffffffffffffffffffffffffff1602179055506020820151816001015560408201518160020160006101000a81548160ff021916908360ff16021790555060608201518160020160016101000a81548160ff021916908360ff160217905550505061260d90919063ffffffff16565b9050600260008773ffffffffffffffffffffffffffffffffffffffff1673ffffffffffffffffffffffffffffffffffffffff1681526020019081526020016000208190806001815401808255809150509060018203906000526020600020016000909192909190915055508573ffffffffffffffffffffffffffffffffffffffff167f17380e5c7e49bb63456c169391a3c9d352ebf36d3213078b1f8caec842b26edb8a8a8a604051808460ff1660ff1681526020018360ff1660ff168152602001828152602001935050505060405180910390a25b8160200151945050505050949350505050565b6000806000809050600091505b600860008573ffffffffffffffffffffffffffffffffffffffff1673ffffffffffffffffffffffffffffffffffffffff1681526020019081526020016000208054905082101561336b578460ff166007600860008773ffffffffffffffffffffffffffffffffffffffff1673ffffffffffffffffffffffffffffffffffffffff1681526020019081526020016000208481548110151561329057fe5b90600052602060002001548154811015156132a757fe5b906000526020600020906007020160060160009054906101000a900460ff1660ff16141561335e576133586007600860008773ffffffffffffffffffffffffffffffffffffffff1673ffffffffffffffffffffffffffffffffffffffff1681526020019081526020016000208481548110151561332057fe5b906000526020600020015481548110151561333757fe5b9060005260206000209060070201600501548261337690919063ffffffff16565b5061336b565b81806001019250506131f4565b809250505092915050565b600080828401905083811015151561338a57fe5b8091505092915050565b50805460018160011615610100020316600290046000825580601f106133ba57506133d9565b601f0160209004906000526020600020908101906133d891906134a1565b5b50565b828054600181600116156101000203166002900490600052602060002090601f016020900481019282601f1061341d57805160ff191683800117855561344b565b8280016001018555821561344b579182015b8281111561344a57825182559160200191906001019061342f565b5b50905061345891906134a1565b5090565b608060405190810160405280600073ffffffffffffffffffffffffffffffffffffffff16815260200160008152602001600060ff168152602001600060ff1681525090565b6134c391905b808211156134bf5760008160009055506001016134a7565b5090565b905600a165627a7a72305820343591c0717874e17ee578183b1b4bb7a8bd43ca18e6e96c81376cb503f7a3650029",
  "source": "pragma solidity ^0.4.23;\r\n\r\nlibrary SafeMath {\r\n    function mul(uint256 a, uint256 b) internal pure returns (uint256) {\r\n        uint256 c = a * b;\r\n        assert(a == 0 || c / a == b);\r\n        return c;\r\n    }\r\n    function div(uint256 a, uint256 b) internal pure returns (uint256) {\r\n        uint256 c = a / b;\r\n        return c;\r\n    }\r\n    function sub(uint256 a, uint256 b) internal pure returns (uint256) {\r\n        assert(b <= a);\r\n        return a - b;\r\n    }\r\n    function add(uint256 a, uint256 b) internal pure returns (uint256) {\r\n        uint256 c = a + b;\r\n        assert(c >= a);\r\n        return c;\r\n    }\r\n}\r\n//\r\ncontract Ownable {\r\n    address public owner;\r\n\r\n    constructor() public {\r\n        owner = msg.sender;\r\n    }\r\n    modifier onlyOwner() {\r\n        require(msg.sender == owner);\r\n        _;\r\n    }\r\n    function transferOwnership(address newOwner) public onlyOwner {\r\n        if (newOwner != address(0)) {\r\n            owner = newOwner;\r\n        }\r\n    }\r\n}\r\ncontract Destructible is Ownable {\r\n    constructor() public payable { }\r\n    function destroy() onlyOwner public {\r\n        selfdestruct(owner);\r\n    }\r\n    function destroyAndSend(address _recipient) onlyOwner public {\r\n        selfdestruct(_recipient);\r\n    }\r\n}\r\ncontract Pausable is Ownable {\r\n    event Pause();\r\n    event Unpause();\r\n\r\n    bool public paused = false;\r\n    modifier whenNotPaused() {\r\n        require(!paused);\r\n        _;\r\n    }\r\n    modifier whenPaused() {\r\n        require(paused);\r\n        _;\r\n    }\r\n    function pause() onlyOwner whenNotPaused public {\r\n        paused = true;\r\n        emit Pause();\r\n    }\r\n    function unpause() onlyOwner whenPaused public {\r\n        paused = false;\r\n        emit Unpause();\r\n    }\r\n}\r\ncontract ERC20Interface {\r\n    function transferFrom(address from, address to, uint tokens) public returns (bool success);\r\n    function balanceOf(address _owner) public view returns (uint256 balance);\r\n    function totalSupply() public view returns (uint256 total);\r\n}\r\n\r\ncontract ERC721Interface {\r\n    function ownerOf(uint256 tokenId) public view returns (address);\r\n    function safeTransferFrom(address from, address to, uint256 tokenId) public;\r\n    function approve(address _to, uint256 _tokenId) external;\r\n}\r\n\r\ncontract Market20 is Ownable,Pausable {\r\n    using SafeMath for uint256;\r\n    using SafeMath for uint8;\r\n\r\n    event EggMkCreated(uint8 _level,uint8 _eType,uint256 _count,address indexed _owner);\r\n    event TransferEggMk(address indexed _from,address indexed _to,uint256 _count,uint8 _eType,uint8 _level);\r\n    event EggMkUpdated(uint8 _level,uint8 _eType,uint256 _count,address indexed _owner);\r\n\r\n    struct EggMk {\r\n        address owner;\r\n        uint256 mkCount;\r\n        uint8 eType;\r\n        uint8 level;\r\n    }\r\n    EggMk[] eggs;\r\n    mapping (address => uint256[]) public mappEggMk;\r\n\r\n    function _createEggMk(uint8 _level,uint8 _eType,uint256 _count,address _owner) internal returns (uint){\r\n        require(_eType <= 20);\r\n        uint i;\r\n        bool flag = false;\r\n        if(mappEggMk[_owner].length >0 ){\r\n            for(i=0;i<mappEggMk[_owner].length;i++){\r\n                if(eggs[mappEggMk[_owner][i]].eType == _eType){\r\n                    eggs[mappEggMk[_owner][i]].mkCount = eggs[mappEggMk[_owner][i]].mkCount.add(_count);\r\n                    emit EggMkUpdated(_level,_eType,_count,_owner);\r\n                    flag = true;\r\n                }\r\n            }\r\n        }\r\n        if(!flag){\r\n            EggMk memory curEggMak = EggMk(_owner,_count,_eType,_level);\r\n            uint256 auctionId = eggs.push(curEggMak).sub(1);\r\n            mappEggMk[_owner].push(auctionId);\r\n            emit EggMkCreated(_level,_eType,_count,_owner);\r\n        }\r\n        return curEggMak.mkCount;\r\n    }\r\n    //EggMk[] eggs;\r\n    //mapping (address => uint256[]) public mappEggMk;\r\n    function _transferEggMk(address _from,address _to,uint256 _count,uint8 _eType,uint8 _level) internal returns (bool){\r\n        require(_eType <= 20);\r\n        require(_count >= 1);\r\n        uint i;\r\n        bool flag = false;\r\n        if(mappEggMk[_from].length >0 ){\r\n            for(i=0;i<mappEggMk[_from].length;i++){\r\n                if(eggs[mappEggMk[_from][i]].eType == _eType){\r\n                    if(eggs[mappEggMk[_from][i]].mkCount == _count){\r\n                        delete eggs[mappEggMk[_from][i]];\r\n                        delete mappEggMk[_from][i];\r\n                    }else{\r\n                        eggs[mappEggMk[_from][i]].mkCount = eggs[mappEggMk[_from][i]].mkCount.sub(_count);\r\n                    }\r\n                    _createEggMk(_level,_eType,_count,_to);\r\n                    flag = true;\r\n                }\r\n            }\r\n        }\r\n        return flag;\r\n    }\r\n    function _getEggCount(address _from,uint8 _eType) internal view returns (uint256) {\r\n        require(_eType <= 20);\r\n        uint i;\r\n        uint count = 0;\r\n        if(mappEggMk[_from].length >0 ){\r\n            for(i=0;i<mappEggMk[_from].length;i++){\r\n                if(eggs[mappEggMk[_from][i]].eType == _eType){\r\n                    count = count.add(eggs[mappEggMk[_from][i]].mkCount);\r\n                }\r\n            }\r\n        }\r\n        return count;\r\n    }\r\n}\r\n\r\ncontract MarketUse is Market20 {\r\n    ERC20Interface public acceptedToken;\r\n    ERC721Interface public nonFungibleRegistry;\r\n\r\n    uint256 public constant CREATION_LIMIT = 500000;\r\n    uint256 public constant TRANSFER_STAND = 10;\r\n    uint256 public totalCount;\r\n    uint256 public createdCount;\r\n\r\n    function createInitEgg( address _owner) external onlyOwner {\r\n        require(createdCount < CREATION_LIMIT);\r\n        //require(acceptedToken.balanceOf(_owner).mul(TRANSFER_STAND) > CREATION_LIMIT );\r\n        _createEggMk(0, 0,CREATION_LIMIT,_owner);\r\n        createdCount = CREATION_LIMIT;\r\n    }\r\n    function createEgg(uint8 _level,uint8 _eType,uint256 _count, address _owner) external onlyOwner {\r\n        //require(acceptedToken.balanceOf(_owner).mul(TRANSFER_STAND) > _count);\r\n        _createEggMk(_level, _eType,_count,_owner);\r\n    }\r\n    function transferEggMk(address _from,address _to,uint256 _count,uint8 _eType,uint8 _level) external onlyOwner returns (bool){\r\n        require(_eType <= 20);\r\n        require(_count >= 1);\r\n        _transferEggMk(_from,_to,_count,_eType,_level);\r\n    }\r\n    function getEggCount(uint8 _eType) external view returns (uint256) {\r\n        require(_eType <= 20);\r\n        return _getEggCount(msg.sender,_eType);\r\n    }\r\n    function getEggList(address _address) external view returns (uint256[]) {\r\n        return mappEggMk[_address];\r\n    }\r\n    function getEggByType(uint256 _index) external view returns (\r\n        address owner,\r\n        uint256 mkCount,\r\n        uint8 eType,\r\n        uint8 level\r\n    ) {\r\n        EggMk storage mk = eggs[_index];\r\n        return (mk.owner,mk.mkCount,mk.eType,mk.level);\r\n    }\r\n}\r\n\r\ncontract EggAuction is MarketUse {\r\n    struct Auction {\r\n        uint256 id;\r\n        address seller;\r\n        string name;\r\n        uint256 price;\r\n        uint256 expiresAt;\r\n        uint256 salesCount;\r\n        uint8 eType;\r\n    }\r\n\r\n    Auction[] public auctions;\r\n    mapping (address => uint256[]) public auctionByTokenId;\r\n\r\n    uint256 public publicationFeeInWei = 10 ether;\r\n\r\n    /* EVENTS */\r\n    event AuctionCreated(\r\n        uint256 id,\r\n        address indexed seller,\r\n        uint256 priceInWei,\r\n        uint256 expiresAt,\r\n        uint256 salesCount,\r\n        uint8 eType);\r\n    event AuctionSuccessful(\r\n        uint256 id,\r\n        address indexed seller,\r\n        uint256 totalPrice,\r\n        address indexed winner,\r\n        uint256 salesCount,\r\n        uint256 time,\r\n        uint8 eType);\r\n    event AuctionCancelled(\r\n        uint256 id,\r\n        uint256 count,\r\n        address indexed seller,\r\n        uint256 time);\r\n\r\n    function _getAuctionIndex(uint256 _auctionId,address _owner) view internal returns (uint256) {\r\n        uint256 i;\r\n        for(i=0;i<auctionByTokenId[_owner].length;i++){\r\n            if(auctionByTokenId[_owner][i] == _auctionId){\r\n                break;\r\n            }\r\n        }\r\n        return i;\r\n    }\r\n    //auction executing count\r\n    function _getAuctionByType(uint8 _eType,address _owner) view internal returns (uint256) {\r\n        uint256 i;\r\n        uint256 count = 0;\r\n        for(i=0;i<auctionByTokenId[_owner].length;i++){\r\n            if(auctions[auctionByTokenId[_owner][i]].eType == _eType){\r\n                count.add(auctions[auctionByTokenId[_owner][i]].salesCount);\r\n                break;\r\n            }\r\n        }\r\n        return count;\r\n    }\r\n\r\n    function createEggAuction(uint256 priceInWei, uint256 expiresAt,uint256 _count,uint8 _eType,string _name)\r\n    public payable whenNotPaused {\r\n        require(msg.sender != address(0));\r\n        require(_eType <= 20);\r\n        require(_count >= 1);\r\n        require(priceInWei > 0);\r\n        uint256 auctionCount = _getAuctionByType(_eType,msg.sender);\r\n        uint256 eggCount = _getEggCount(msg.sender,_eType);\r\n        require(_count.add(auctionCount) <= eggCount );\r\n        uint256 auctionId = auctions.length;\r\n        auctions.push(Auction({id: auctionId,seller: msg.sender,name:_name,\r\n            price: priceInWei,expiresAt: expiresAt,salesCount: _count,eType: _eType}));\r\n        auctionByTokenId[msg.sender].push(auctionId);\r\n        emit AuctionCreated(auctionId,msg.sender,priceInWei,now,_count,_eType);\r\n    }\r\n    function cancelEggAuction(uint256 _auctionId) public whenNotPaused {\r\n        uint256 i = _getAuctionIndex(_auctionId,msg.sender);\r\n        uint256 salesCount = auctions[_auctionId].salesCount;\r\n        require(i>=0 || msg.sender == owner);\r\n        delete auctionByTokenId[msg.sender][i];\r\n        delete auctions[_auctionId];\r\n\r\n        emit AuctionCancelled(_auctionId, salesCount, msg.sender,now);\r\n    }\r\n\r\n    function executeEggAuction(uint256 _auctionId,uint256 _count) public payable whenNotPaused {\r\n        address seller = auctions[_auctionId].seller;\r\n        //require(seller != address(0));\r\n        require(seller != msg.sender);\r\n        require(auctions[_auctionId].salesCount > 0);\r\n        require(auctions[_auctionId].price.mul(_count) == msg.value);\r\n\r\n        uint8 eType = auctions[_auctionId].eType;\r\n        uint price = msg.value;\r\n        if(seller != owner){\r\n            uint saleFeeAmount = price.div(100);\r\n            uint256 sellerProceeds = price.sub(saleFeeAmount);\r\n            seller.transfer(sellerProceeds);\r\n        }\r\n        require(_transferEggMk(seller,msg.sender,_count,eType,0));\r\n        uint256 i = _getAuctionIndex(_auctionId,seller);\r\n        if(auctions[_auctionId].salesCount <= _count ){\r\n            delete auctions[_auctionId];\r\n            delete auctionByTokenId[owner][i];\r\n        }else{\r\n            auctions[_auctionId].salesCount = auctions[_auctionId].salesCount.sub(_count);\r\n        }\r\n\r\n        emit AuctionSuccessful(_auctionId,seller, price, msg.sender,_count,now,eType);\r\n    }\r\n\r\n    function getAuctions() external view returns (uint256,uint256[]) {\r\n        uint256[] memory result = new uint256[](auctions.length);\r\n        uint256 i;\r\n        for(i=0;i<auctions.length;i++){\r\n            result[i] = auctions[i].id;\r\n        }\r\n        return (auctions.length,result);\r\n    }\r\n\r\n    function getAuction(uint256 _id) external view returns (\r\n        uint256 id,\r\n        address seller,\r\n        string name,\r\n        uint256 price,\r\n        uint256 expiresAt,\r\n        uint256 salesCount,\r\n        uint8 eType\r\n    ) {\r\n        Auction storage auction = auctions[_id];\r\n        id =auction.id;\r\n        seller = auction.seller;\r\n        name = auction.name;\r\n        price = auction.price;\r\n        expiresAt = auction.expiresAt;\r\n        salesCount = auction.salesCount;\r\n        eType = auction.eType;\r\n    }\r\n    function getAuctionByType(uint8 _eType) view external returns (uint256) {\r\n        return _getAuctionByType(_eType,msg.sender);\r\n    }\r\n    function withdrawBalance(uint256 amount) external onlyOwner {\r\n        uint256 balance = address(this).balance;\r\n        if (balance > amount) {\r\n            owner.transfer(amount);\r\n        }\r\n    }\r\n}\r\ncontract EggAuctionCore is EggAuction{\r\n\r\n    constructor(address _acceptedToken, address _nonFungibleRegistry) public {\r\n        acceptedToken = ERC20Interface(_acceptedToken);\r\n        nonFungibleRegistry = ERC721Interface(_nonFungibleRegistry);\r\n    }\r\n\r\n    event ExchangeCreated(\r\n        uint256 id,\r\n        address indexed from,\r\n        address indexed to,\r\n        uint256 priceInWei,\r\n        uint256 time,\r\n        uint256 count,\r\n        uint8 eType);\r\n\r\n    function exchangeEggToDDC(uint256 _auctionId,uint256 _count,uint8 _eType,uint8 _level) public payable whenNotPaused {\r\n        uint256 eggCount = _getEggCount(msg.sender,_eType);\r\n        require(eggCount > _count);\r\n        uint256 auctionCount = _getAuctionByType(_eType,msg.sender);\r\n        require(_count.add(auctionCount) <= eggCount );\r\n\r\n        require(acceptedToken.transferFrom(\r\n                owner,\r\n                msg.sender,\r\n                publicationFeeInWei.mul(_count)\r\n            ));\r\n\r\n        require(_transferEggMk(msg.sender,owner,_count,_eType,_level));\r\n        emit ExchangeCreated(_auctionId,msg.sender,owner,publicationFeeInWei.mul(_count),now,_count,_eType);\r\n    }\r\n\r\n    function exchangeDDCToEgg(uint256 _count,uint8 _eType,uint8 _level) public payable whenNotPaused {\r\n        require(_count > 0);\r\n        require(_eType >= 0 && _eType<=20);\r\n        uint256 eggCount = _getEggCount(msg.sender,_eType);\r\n        require(eggCount > _count);\r\n        require(acceptedToken.balanceOf(msg.sender) >= _count);\r\n\r\n        require(acceptedToken.transferFrom(\r\n                msg.sender,\r\n                owner,\r\n                publicationFeeInWei.mul(_count)\r\n            ));\r\n        require(_transferEggMk(msg.sender,owner,_count,_eType,_level));\r\n\r\n        emit ExchangeCreated(0,owner,msg.sender,publicationFeeInWei.mul(_count),now,_count,_eType);\r\n    }\r\n\r\n}\r\n",
  "sourcePath": "/home/lwd/trufflepro/contracts/EggAuction.sol",
  "compiler": {
    "name": "solc",
    "version": "0.4.23+commit.124ca40d.Emscripten.clang"
  },
  "schemaVersion": "2.0.0",
  "updatedAt": "2018-05-15T09:42:39.096Z"
}