{
  "contractName": "SalesAndPlay",
  "abi": [
    {
      "constant": true,
      "inputs": [
        {
          "name": "",
          "type": "address"
        },
        {
          "name": "",
          "type": "uint256"
        }
      ],
      "name": "mappEggMk",
      "outputs": [
        {
          "name": "",
          "type": "uint256"
        }
      ],
      "payable": false,
      "stateMutability": "view",
      "type": "function"
    },
    {
      "constant": true,
      "inputs": [],
      "name": "nonFungibleRegistry",
      "outputs": [
        {
          "name": "",
          "type": "address"
        }
      ],
      "payable": false,
      "stateMutability": "view",
      "type": "function"
    },
    {
      "constant": true,
      "inputs": [],
      "name": "totalCount",
      "outputs": [
        {
          "name": "",
          "type": "uint256"
        }
      ],
      "payable": false,
      "stateMutability": "view",
      "type": "function"
    },
    {
      "constant": true,
      "inputs": [
        {
          "name": "",
          "type": "address"
        },
        {
          "name": "",
          "type": "uint256"
        }
      ],
      "name": "auctionByTokenId",
      "outputs": [
        {
          "name": "",
          "type": "uint256"
        }
      ],
      "payable": false,
      "stateMutability": "view",
      "type": "function"
    },
    {
      "constant": false,
      "inputs": [],
      "name": "unpause",
      "outputs": [],
      "payable": false,
      "stateMutability": "nonpayable",
      "type": "function"
    },
    {
      "constant": true,
      "inputs": [],
      "name": "acceptedToken",
      "outputs": [
        {
          "name": "",
          "type": "address"
        }
      ],
      "payable": false,
      "stateMutability": "view",
      "type": "function"
    },
    {
      "constant": false,
      "inputs": [
        {
          "name": "_owner",
          "type": "address"
        }
      ],
      "name": "createInitEgg",
      "outputs": [],
      "payable": false,
      "stateMutability": "nonpayable",
      "type": "function"
    },
    {
      "constant": true,
      "inputs": [
        {
          "name": "",
          "type": "uint256"
        }
      ],
      "name": "auctions",
      "outputs": [
        {
          "name": "id",
          "type": "uint256"
        },
        {
          "name": "seller",
          "type": "address"
        },
        {
          "name": "price",
          "type": "uint256"
        },
        {
          "name": "expiresAt",
          "type": "uint256"
        },
        {
          "name": "salesCount",
          "type": "uint256"
        },
        {
          "name": "eType",
          "type": "uint8"
        }
      ],
      "payable": false,
      "stateMutability": "view",
      "type": "function"
    },
    {
      "constant": true,
      "inputs": [],
      "name": "paused",
      "outputs": [
        {
          "name": "",
          "type": "bool"
        }
      ],
      "payable": false,
      "stateMutability": "view",
      "type": "function"
    },
    {
      "constant": true,
      "inputs": [
        {
          "name": "_index",
          "type": "uint256"
        }
      ],
      "name": "getEggByType",
      "outputs": [
        {
          "name": "owner",
          "type": "address"
        },
        {
          "name": "mkCount",
          "type": "uint256"
        },
        {
          "name": "eType",
          "type": "uint8"
        },
        {
          "name": "level",
          "type": "uint8"
        }
      ],
      "payable": false,
      "stateMutability": "view",
      "type": "function"
    },
    {
      "constant": false,
      "inputs": [
        {
          "name": "_level",
          "type": "uint8"
        },
        {
          "name": "_eType",
          "type": "uint8"
        },
        {
          "name": "_count",
          "type": "uint256"
        },
        {
          "name": "_owner",
          "type": "address"
        }
      ],
      "name": "createEgg",
      "outputs": [],
      "payable": false,
      "stateMutability": "nonpayable",
      "type": "function"
    },
    {
      "constant": true,
      "inputs": [],
      "name": "ownerCutPercentage",
      "outputs": [
        {
          "name": "",
          "type": "uint256"
        }
      ],
      "payable": false,
      "stateMutability": "view",
      "type": "function"
    },
    {
      "constant": false,
      "inputs": [],
      "name": "pause",
      "outputs": [],
      "payable": false,
      "stateMutability": "nonpayable",
      "type": "function"
    },
    {
      "constant": true,
      "inputs": [],
      "name": "owner",
      "outputs": [
        {
          "name": "",
          "type": "address"
        }
      ],
      "payable": false,
      "stateMutability": "view",
      "type": "function"
    },
    {
      "constant": true,
      "inputs": [],
      "name": "publicationFeeInWei",
      "outputs": [
        {
          "name": "",
          "type": "uint256"
        }
      ],
      "payable": false,
      "stateMutability": "view",
      "type": "function"
    },
    {
      "constant": true,
      "inputs": [],
      "name": "createdCount",
      "outputs": [
        {
          "name": "",
          "type": "uint256"
        }
      ],
      "payable": false,
      "stateMutability": "view",
      "type": "function"
    },
    {
      "constant": false,
      "inputs": [
        {
          "name": "_from",
          "type": "address"
        },
        {
          "name": "_to",
          "type": "address"
        },
        {
          "name": "_count",
          "type": "uint256"
        },
        {
          "name": "_eType",
          "type": "uint8"
        },
        {
          "name": "_level",
          "type": "uint8"
        }
      ],
      "name": "transferEggMk",
      "outputs": [
        {
          "name": "",
          "type": "bool"
        }
      ],
      "payable": false,
      "stateMutability": "nonpayable",
      "type": "function"
    },
    {
      "constant": true,
      "inputs": [],
      "name": "CREATION_LIMIT",
      "outputs": [
        {
          "name": "",
          "type": "uint256"
        }
      ],
      "payable": false,
      "stateMutability": "view",
      "type": "function"
    },
    {
      "constant": true,
      "inputs": [],
      "name": "TRANSFER_STAND",
      "outputs": [
        {
          "name": "",
          "type": "uint256"
        }
      ],
      "payable": false,
      "stateMutability": "view",
      "type": "function"
    },
    {
      "constant": true,
      "inputs": [
        {
          "name": "_address",
          "type": "address"
        }
      ],
      "name": "getEggList",
      "outputs": [
        {
          "name": "",
          "type": "uint256[]"
        }
      ],
      "payable": false,
      "stateMutability": "view",
      "type": "function"
    },
    {
      "constant": false,
      "inputs": [
        {
          "name": "newOwner",
          "type": "address"
        }
      ],
      "name": "transferOwnership",
      "outputs": [],
      "payable": false,
      "stateMutability": "nonpayable",
      "type": "function"
    },
    {
      "inputs": [
        {
          "name": "_acceptedToken",
          "type": "address"
        },
        {
          "name": "_nonFungibleRegistry",
          "type": "address"
        }
      ],
      "payable": false,
      "stateMutability": "nonpayable",
      "type": "constructor"
    },
    {
      "anonymous": false,
      "inputs": [
        {
          "indexed": false,
          "name": "id",
          "type": "uint256"
        },
        {
          "indexed": true,
          "name": "seller",
          "type": "address"
        },
        {
          "indexed": false,
          "name": "priceInWei",
          "type": "uint256"
        },
        {
          "indexed": false,
          "name": "expiresAt",
          "type": "uint256"
        },
        {
          "indexed": false,
          "name": "salesCount",
          "type": "uint256"
        },
        {
          "indexed": false,
          "name": "eType",
          "type": "uint8"
        }
      ],
      "name": "AuctionCreated",
      "type": "event"
    },
    {
      "anonymous": false,
      "inputs": [
        {
          "indexed": false,
          "name": "id",
          "type": "uint256"
        },
        {
          "indexed": true,
          "name": "seller",
          "type": "address"
        },
        {
          "indexed": false,
          "name": "totalPrice",
          "type": "uint256"
        },
        {
          "indexed": true,
          "name": "winner",
          "type": "address"
        },
        {
          "indexed": false,
          "name": "salesCount",
          "type": "uint256"
        },
        {
          "indexed": false,
          "name": "eType",
          "type": "uint8"
        }
      ],
      "name": "AuctionSuccessful",
      "type": "event"
    },
    {
      "anonymous": false,
      "inputs": [
        {
          "indexed": false,
          "name": "id",
          "type": "uint256"
        },
        {
          "indexed": false,
          "name": "count",
          "type": "uint256"
        },
        {
          "indexed": true,
          "name": "seller",
          "type": "address"
        }
      ],
      "name": "AuctionCancelled",
      "type": "event"
    },
    {
      "anonymous": false,
      "inputs": [
        {
          "indexed": false,
          "name": "publicationFee",
          "type": "uint256"
        }
      ],
      "name": "ChangedPublicationFee",
      "type": "event"
    },
    {
      "anonymous": false,
      "inputs": [
        {
          "indexed": false,
          "name": "ownerCut",
          "type": "uint256"
        }
      ],
      "name": "ChangedOwnerCut",
      "type": "event"
    },
    {
      "anonymous": false,
      "inputs": [
        {
          "indexed": false,
          "name": "_level",
          "type": "uint8"
        },
        {
          "indexed": false,
          "name": "_eType",
          "type": "uint8"
        },
        {
          "indexed": false,
          "name": "_count",
          "type": "uint256"
        },
        {
          "indexed": true,
          "name": "_owner",
          "type": "address"
        }
      ],
      "name": "EggMkCreated",
      "type": "event"
    },
    {
      "anonymous": false,
      "inputs": [
        {
          "indexed": true,
          "name": "_from",
          "type": "address"
        },
        {
          "indexed": true,
          "name": "_to",
          "type": "address"
        },
        {
          "indexed": false,
          "name": "_count",
          "type": "uint256"
        },
        {
          "indexed": false,
          "name": "_eType",
          "type": "uint8"
        },
        {
          "indexed": false,
          "name": "_level",
          "type": "uint8"
        }
      ],
      "name": "TransferEggMk",
      "type": "event"
    },
    {
      "anonymous": false,
      "inputs": [
        {
          "indexed": false,
          "name": "_level",
          "type": "uint8"
        },
        {
          "indexed": false,
          "name": "_eType",
          "type": "uint8"
        },
        {
          "indexed": false,
          "name": "_count",
          "type": "uint256"
        },
        {
          "indexed": true,
          "name": "_owner",
          "type": "address"
        }
      ],
      "name": "EggMkUpdated",
      "type": "event"
    },
    {
      "anonymous": false,
      "inputs": [],
      "name": "Pause",
      "type": "event"
    },
    {
      "anonymous": false,
      "inputs": [],
      "name": "Unpause",
      "type": "event"
    },
    {
      "constant": false,
      "inputs": [
        {
          "name": "priceInWei",
          "type": "uint256"
        },
        {
          "name": "expiresAt",
          "type": "uint256"
        },
        {
          "name": "_count",
          "type": "uint256"
        },
        {
          "name": "_eType",
          "type": "uint8"
        },
        {
          "name": "_level",
          "type": "uint8"
        }
      ],
      "name": "createEggAuction",
      "outputs": [],
      "payable": false,
      "stateMutability": "nonpayable",
      "type": "function"
    },
    {
      "constant": false,
      "inputs": [
        {
          "name": "_auctionId",
          "type": "uint256"
        }
      ],
      "name": "cancelEggAuction",
      "outputs": [],
      "payable": false,
      "stateMutability": "nonpayable",
      "type": "function"
    },
    {
      "constant": false,
      "inputs": [
        {
          "name": "_auctionId",
          "type": "uint256"
        },
        {
          "name": "_count",
          "type": "uint256"
        }
      ],
      "name": "executeEggAuction",
      "outputs": [],
      "payable": true,
      "stateMutability": "payable",
      "type": "function"
    },
    {
      "constant": true,
      "inputs": [],
      "name": "getAuctions",
      "outputs": [
        {
          "name": "",
          "type": "uint256"
        },
        {
          "name": "",
          "type": "uint256[]"
        }
      ],
      "payable": false,
      "stateMutability": "view",
      "type": "function"
    },
    {
      "constant": true,
      "inputs": [
        {
          "name": "_id",
          "type": "uint256"
        }
      ],
      "name": "getAuction",
      "outputs": [
        {
          "name": "id",
          "type": "uint256"
        },
        {
          "name": "seller",
          "type": "address"
        },
        {
          "name": "price",
          "type": "uint256"
        },
        {
          "name": "expiresAt",
          "type": "uint256"
        },
        {
          "name": "salesCount",
          "type": "uint256"
        },
        {
          "name": "eType",
          "type": "uint8"
        }
      ],
      "payable": false,
      "stateMutability": "view",
      "type": "function"
    }
  ],
  "bytecode": "0x608060405260008060146101000a81548160ff021916908315150217905550678ac7230489e80000600a5534801561003657600080fd5b50604051604080612e4c8339810180604052810190808051906020019092919080519060200190929190505050336000806101000a81548173ffffffffffffffffffffffffffffffffffffffff021916908373ffffffffffffffffffffffffffffffffffffffff16021790555081600360006101000a81548173ffffffffffffffffffffffffffffffffffffffff021916908373ffffffffffffffffffffffffffffffffffffffff16021790555080600460006101000a81548173ffffffffffffffffffffffffffffffffffffffff021916908373ffffffffffffffffffffffffffffffffffffffff1602179055505050612d16806101366000396000f300608060405260043610610154576000357c0100000000000000000000000000000000000000000000000000000000900463ffffffff1680631646f3bf146101595780632534cfe3146101835780632be79833146101e457806334eafb111461023b57806339f5be76146102665780633f4ba83a146102c7578063451c3d80146102de5780634e0fb91114610335578063571a26a0146103785780635c975abb1461040e5780636a5a31e11461043d57806375a2af91146104cb57806378bd7935146105325780637bc578fa146105c85780638174b6d7146106235780638456cb591461064e5780638da5cb5b14610665578063ae4f1198146106bc578063c3147346146106e7578063d68866ca14610712578063d72b6d3b146107b1578063d7c06919146107dc578063e05fe5c41461084f578063e43901791461087c578063eb5c81c4146108a7578063f2fde38b1461093f575b600080fd5b6101816004803603810190808035906020019092919080359060200190929190505050610982565b005b34801561018f57600080fd5b506101ce600480360381019080803573ffffffffffffffffffffffffffffffffffffffff16906020019092919080359060200190929190505050610d69565b6040518082815260200191505060405180910390f35b3480156101f057600080fd5b506101f9610d99565b604051808273ffffffffffffffffffffffffffffffffffffffff1673ffffffffffffffffffffffffffffffffffffffff16815260200191505060405180910390f35b34801561024757600080fd5b50610250610dbf565b6040518082815260200191505060405180910390f35b34801561027257600080fd5b506102b1600480360381019080803573ffffffffffffffffffffffffffffffffffffffff16906020019092919080359060200190929190505050610dc5565b6040518082815260200191505060405180910390f35b3480156102d357600080fd5b506102dc610df5565b005b3480156102ea57600080fd5b506102f3610eb3565b604051808273ffffffffffffffffffffffffffffffffffffffff1673ffffffffffffffffffffffffffffffffffffffff16815260200191505060405180910390f35b34801561034157600080fd5b50610376600480360381019080803573ffffffffffffffffffffffffffffffffffffffff169060200190929190505050610ed9565b005b34801561038457600080fd5b506103a360048036038101908080359060200190929190505050611080565b604051808781526020018673ffffffffffffffffffffffffffffffffffffffff1673ffffffffffffffffffffffffffffffffffffffff1681526020018581526020018481526020018381526020018260ff1660ff168152602001965050505050505060405180910390f35b34801561041a57600080fd5b506104236110f8565b604051808215151515815260200191505060405180910390f35b34801561044957600080fd5b506104686004803603810190808035906020019092919050505061110b565b604051808573ffffffffffffffffffffffffffffffffffffffff1673ffffffffffffffffffffffffffffffffffffffff1681526020018481526020018360ff1660ff1681526020018260ff1660ff16815260200194505050505060405180910390f35b3480156104d757600080fd5b50610530600480360381019080803560ff169060200190929190803560ff16906020019092919080359060200190929190803573ffffffffffffffffffffffffffffffffffffffff169060200190929190505050611190565b005b34801561053e57600080fd5b5061055d60048036038101908080359060200190929190505050611316565b604051808781526020018673ffffffffffffffffffffffffffffffffffffffff1673ffffffffffffffffffffffffffffffffffffffff1681526020018581526020018481526020018381526020018260ff1660ff168152602001965050505050505060405180910390f35b3480156105d457600080fd5b50610621600480360381019080803590602001909291908035906020019092919080359060200190929190803560ff169060200190929190803560ff1690602001909291905050506113a1565b005b34801561062f57600080fd5b50610638611980565b6040518082815260200191505060405180910390f35b34801561065a57600080fd5b50610663611986565b005b34801561067157600080fd5b5061067a611a46565b604051808273ffffffffffffffffffffffffffffffffffffffff1673ffffffffffffffffffffffffffffffffffffffff16815260200191505060405180910390f35b3480156106c857600080fd5b506106d1611a6b565b6040518082815260200191505060405180910390f35b3480156106f357600080fd5b506106fc611a71565b6040518082815260200191505060405180910390f35b34801561071e57600080fd5b50610797600480360381019080803573ffffffffffffffffffffffffffffffffffffffff169060200190929190803573ffffffffffffffffffffffffffffffffffffffff16906020019092919080359060200190929190803560ff169060200190929190803560ff169060200190929190505050611a77565b604051808215151515815260200191505060405180910390f35b3480156107bd57600080fd5b506107c6611b0e565b6040518082815260200191505060405180910390f35b3480156107e857600080fd5b506107f1611b15565b6040518083815260200180602001828103825283818151815260200191508051906020019060200280838360005b8381101561083a57808201518184015260208101905061081f565b50505050905001935050505060405180910390f35b34801561085b57600080fd5b5061087a60048036038101908080359060200190929190505050611bc0565b005b34801561088857600080fd5b50610891611f70565b6040518082815260200191505060405180910390f35b3480156108b357600080fd5b506108e8600480360381019080803573ffffffffffffffffffffffffffffffffffffffff169060200190929190505050611f75565b6040518080602001828103825283818151815260200191508051906020019060200280838360005b8381101561092b578082015181840152602081019050610910565b505050509050019250505060405180910390f35b34801561094b57600080fd5b50610980600480360381019080803573ffffffffffffffffffffffffffffffffffffffff16906020019092919050505061200c565b005b600080600080600080600060149054906101000a900460ff161515156109a757600080fd5b6007888154811015156109b657fe5b906000526020600020906006020160010160009054906101000a900473ffffffffffffffffffffffffffffffffffffffff169550600073ffffffffffffffffffffffffffffffffffffffff168673ffffffffffffffffffffffffffffffffffffffff1614151515610a2657600080fd5b3373ffffffffffffffffffffffffffffffffffffffff168673ffffffffffffffffffffffffffffffffffffffff1614151515610a6157600080fd5b6000600789815481101515610a7257fe5b906000526020600020906006020160040154111515610a9057600080fd5b34600789815481101515610aa057fe5b906000526020600020906006020160020154141515610abe57600080fd5b600788815481101515610acd57fe5b906000526020600020906006020160050160009054906101000a900460ff169450349350610b056064856120e190919063ffffffff16565b925082840391506000809054906101000a900473ffffffffffffffffffffffffffffffffffffffff1673ffffffffffffffffffffffffffffffffffffffff168673ffffffffffffffffffffffffffffffffffffffff16141515610baa578573ffffffffffffffffffffffffffffffffffffffff166108fc839081150290604051600060405180830381858888f19350505050158015610ba8573d6000803e3d6000fd5b505b610bd96000809054906101000a900473ffffffffffffffffffffffffffffffffffffffff1633898860006120fc565b50610be4883361252b565b9050600860008060009054906101000a900473ffffffffffffffffffffffffffffffffffffffff1673ffffffffffffffffffffffffffffffffffffffff1673ffffffffffffffffffffffffffffffffffffffff16815260200190815260200160002081815481101515610c5357fe5b9060005260206000200160009055600788815481101515610c7057fe5b90600052602060002090600602016000808201600090556001820160006101000a81549073ffffffffffffffffffffffffffffffffffffffff02191690556002820160009055600382016000905560048201600090556005820160006101000a81549060ff021916905550503373ffffffffffffffffffffffffffffffffffffffff168673ffffffffffffffffffffffffffffffffffffffff167fab65f5325e40a9aba0b50d73854e5e36a7abc8d2a84626118d19197e49ca20988a878b8a604051808581526020018481526020018381526020018260ff1660ff16815260200194505050505060405180910390a35050505050505050565b600260205281600052604060002081815481101515610d8457fe5b90600052602060002001600091509150505481565b600460009054906101000a900473ffffffffffffffffffffffffffffffffffffffff1681565b60055481565b600860205281600052604060002081815481101515610de057fe5b90600052602060002001600091509150505481565b6000809054906101000a900473ffffffffffffffffffffffffffffffffffffffff1673ffffffffffffffffffffffffffffffffffffffff163373ffffffffffffffffffffffffffffffffffffffff16141515610e5057600080fd5b600060149054906101000a900460ff161515610e6b57600080fd5b60008060146101000a81548160ff0219169083151502179055507f7805862f689e2f13df9f062ff482ad3ad112aca9e0847911ed832e158c525b3360405160405180910390a1565b600360009054906101000a900473ffffffffffffffffffffffffffffffffffffffff1681565b6000809054906101000a900473ffffffffffffffffffffffffffffffffffffffff1673ffffffffffffffffffffffffffffffffffffffff163373ffffffffffffffffffffffffffffffffffffffff16141515610f3457600080fd5b6207a120600654101515610f4757600080fd5b6207a120611056600a600360009054906101000a900473ffffffffffffffffffffffffffffffffffffffff1673ffffffffffffffffffffffffffffffffffffffff166370a08231856040518263ffffffff167c0100000000000000000000000000000000000000000000000000000000028152600401808273ffffffffffffffffffffffffffffffffffffffff1673ffffffffffffffffffffffffffffffffffffffff168152602001915050602060405180830381600087803b15801561100d57600080fd5b505af1158015611021573d6000803e3d6000fd5b505050506040513d602081101561103757600080fd5b81019080805190602001909291905050506125f790919063ffffffff16565b11151561106257600080fd5b6110726000806207a1208461262a565b506207a12060068190555050565b60078181548110151561108f57fe5b90600052602060002090600602016000915090508060000154908060010160009054906101000a900473ffffffffffffffffffffffffffffffffffffffff16908060020154908060030154908060040154908060050160009054906101000a900460ff16905086565b600060149054906101000a900460ff1681565b600080600080600060018681548110151561112257fe5b906000526020600020906003020190508060000160009054906101000a900473ffffffffffffffffffffffffffffffffffffffff1681600101548260020160009054906101000a900460ff168360020160019054906101000a900460ff169450945094509450509193509193565b6000809054906101000a900473ffffffffffffffffffffffffffffffffffffffff1673ffffffffffffffffffffffffffffffffffffffff163373ffffffffffffffffffffffffffffffffffffffff161415156111eb57600080fd5b816112f7600a600360009054906101000a900473ffffffffffffffffffffffffffffffffffffffff1673ffffffffffffffffffffffffffffffffffffffff166370a08231856040518263ffffffff167c0100000000000000000000000000000000000000000000000000000000028152600401808273ffffffffffffffffffffffffffffffffffffffff1673ffffffffffffffffffffffffffffffffffffffff168152602001915050602060405180830381600087803b1580156112ae57600080fd5b505af11580156112c2573d6000803e3d6000fd5b505050506040513d60208110156112d857600080fd5b81019080805190602001909291905050506125f790919063ffffffff16565b11151561130357600080fd5b61130f8484848461262a565b5050505050565b600080600080600080600060078881548110151561133057fe5b90600052602060002090600602019050806000015496508060010160009054906101000a900473ffffffffffffffffffffffffffffffffffffffff1695508060020154945080600301549350806004015492508060050160009054906101000a900460ff1691505091939550919395565b600080600080600060149054906101000a900460ff161515156113c357600080fd5b600073ffffffffffffffffffffffffffffffffffffffff163373ffffffffffffffffffffffffffffffffffffffff16141515156113ff57600080fd5b60148660ff161115151561141257600080fd5b6001871015151561142257600080fd5b61152d600a600360009054906101000a900473ffffffffffffffffffffffffffffffffffffffff1673ffffffffffffffffffffffffffffffffffffffff166370a08231336040518263ffffffff167c0100000000000000000000000000000000000000000000000000000000028152600401808273ffffffffffffffffffffffffffffffffffffffff1673ffffffffffffffffffffffffffffffffffffffff168152602001915050602060405180830381600087803b1580156114e457600080fd5b505af11580156114f8573d6000803e3d6000fd5b505050506040513d602081101561150e57600080fd5b81019080805190602001909291905050506125f790919063ffffffff16565b935083871115151561153e57600080fd5b60008911151561154d57600080fd5b61155733876129fe565b92506115748761156688612bd1565b612c6e90919063ffffffff16565b915081831015151561158557600080fd5b6007805490509050600760c0604051908101604052808381526020013373ffffffffffffffffffffffffffffffffffffffff1681526020018b81526020018a81526020018981526020018860ff16815250908060018154018082558091505090600182039060005260206000209060060201600090919290919091506000820151816000015560208201518160010160006101000a81548173ffffffffffffffffffffffffffffffffffffffff021916908373ffffffffffffffffffffffffffffffffffffffff16021790555060408201518160020155606082015181600301556080820151816004015560a08201518160050160006101000a81548160ff021916908360ff160217905550505050600860003373ffffffffffffffffffffffffffffffffffffffff1673ffffffffffffffffffffffffffffffffffffffff1681526020019081526020016000208190806001815401808255809150509060018203906000526020600020016000909192909190915055503373ffffffffffffffffffffffffffffffffffffffff166000809054906101000a900473ffffffffffffffffffffffffffffffffffffffff1673ffffffffffffffffffffffffffffffffffffffff1614151561190157611781336000809054906101000a900473ffffffffffffffffffffffffffffffffffffffff168989896120fc565b151561178c57600080fd5b600360009054906101000a900473ffffffffffffffffffffffffffffffffffffffff1673ffffffffffffffffffffffffffffffffffffffff166323b872dd336000809054906101000a900473ffffffffffffffffffffffffffffffffffffffff166118028b600a546125f790919063ffffffff16565b6040518463ffffffff167c0100000000000000000000000000000000000000000000000000000000028152600401808473ffffffffffffffffffffffffffffffffffffffff1673ffffffffffffffffffffffffffffffffffffffff1681526020018373ffffffffffffffffffffffffffffffffffffffff1673ffffffffffffffffffffffffffffffffffffffff1681526020018281526020019350505050602060405180830381600087803b1580156118ba57600080fd5b505af11580156118ce573d6000803e3d6000fd5b505050506040513d60208110156118e457600080fd5b8101908080519060200190929190505050151561190057600080fd5b5b3373ffffffffffffffffffffffffffffffffffffffff167fded44d85ac7c09528117e66c774bc3d55d381b31d4b6ac2c58248647e22be978828b8b8b8b604051808681526020018581526020018481526020018381526020018260ff1660ff1681526020019550505050505060405180910390a2505050505050505050565b60095481565b6000809054906101000a900473ffffffffffffffffffffffffffffffffffffffff1673ffffffffffffffffffffffffffffffffffffffff163373ffffffffffffffffffffffffffffffffffffffff161415156119e157600080fd5b600060149054906101000a900460ff161515156119fd57600080fd5b6001600060146101000a81548160ff0219169083151502179055507f6985a02210a168e66602d3235cb6db0e70f92b3ba4d376a33c0f3d9434bff62560405160405180910390a1565b6000809054906101000a900473ffffffffffffffffffffffffffffffffffffffff1681565b600a5481565b60065481565b60008060009054906101000a900473ffffffffffffffffffffffffffffffffffffffff1673ffffffffffffffffffffffffffffffffffffffff163373ffffffffffffffffffffffffffffffffffffffff16141515611ad457600080fd5b60148360ff1611151515611ae757600080fd5b60018410151515611af757600080fd5b611b0486868686866120fc565b5095945050505050565b6207a12081565b60006060806000600780549050604051908082528060200260200182016040528015611b505781602001602082028038833980820191505090505b509150600090505b600780549050811015611baf57600781815481101515611b7457fe5b9060005260206000209060060201600001548282815181101515611b9457fe5b90602001906020020181815250508080600101915050611b58565b600780549050829350935050509091565b600080600060149054906101000a900460ff16151515611bdf57600080fd5b611be9833361252b565b9150600783815481101515611bfa57fe5b9060005260206000209060060201600401549050600082101580611c6a57506000809054906101000a900473ffffffffffffffffffffffffffffffffffffffff1673ffffffffffffffffffffffffffffffffffffffff163373ffffffffffffffffffffffffffffffffffffffff16145b1515611c7557600080fd5b6000809054906101000a900473ffffffffffffffffffffffffffffffffffffffff1673ffffffffffffffffffffffffffffffffffffffff163373ffffffffffffffffffffffffffffffffffffffff16141515611e4057600360009054906101000a900473ffffffffffffffffffffffffffffffffffffffff1673ffffffffffffffffffffffffffffffffffffffff166323b872dd6000809054906101000a900473ffffffffffffffffffffffffffffffffffffffff1633611d4185600a546125f790919063ffffffff16565b6040518463ffffffff167c0100000000000000000000000000000000000000000000000000000000028152600401808473ffffffffffffffffffffffffffffffffffffffff1673ffffffffffffffffffffffffffffffffffffffff1681526020018373ffffffffffffffffffffffffffffffffffffffff1673ffffffffffffffffffffffffffffffffffffffff1681526020018281526020019350505050602060405180830381600087803b158015611df957600080fd5b505af1158015611e0d573d6000803e3d6000fd5b505050506040513d6020811015611e2357600080fd5b81019080805190602001909291905050501515611e3f57600080fd5b5b600860003373ffffffffffffffffffffffffffffffffffffffff1673ffffffffffffffffffffffffffffffffffffffff16815260200190815260200160002082815481101515611e8c57fe5b9060005260206000200160009055600783815481101515611ea957fe5b90600052602060002090600602016000808201600090556001820160006101000a81549073ffffffffffffffffffffffffffffffffffffffff02191690556002820160009055600382016000905560048201600090556005820160006101000a81549060ff021916905550503373ffffffffffffffffffffffffffffffffffffffff167fc7431c6b1d914f39e2fd63a9d1e3b7df6a8fc2332fce7a9a050a97398fd837ff8483604051808381526020018281526020019250505060405180910390a2505050565b600a81565b6060600260008373ffffffffffffffffffffffffffffffffffffffff1673ffffffffffffffffffffffffffffffffffffffff16815260200190815260200160002080548060200260200160405190810160405280929190818152602001828054801561200057602002820191906000526020600020905b815481526020019060010190808311611fec575b50505050509050919050565b6000809054906101000a900473ffffffffffffffffffffffffffffffffffffffff1673ffffffffffffffffffffffffffffffffffffffff163373ffffffffffffffffffffffffffffffffffffffff1614151561206757600080fd5b600073ffffffffffffffffffffffffffffffffffffffff168173ffffffffffffffffffffffffffffffffffffffff161415156120de57806000806101000a81548173ffffffffffffffffffffffffffffffffffffffff021916908373ffffffffffffffffffffffffffffffffffffffff1602179055505b50565b60008082848115156120ef57fe5b0490508091505092915050565b600080600060148560ff161115151561211457600080fd5b6001861015151561212457600080fd5b600090506000600260008a73ffffffffffffffffffffffffffffffffffffffff1673ffffffffffffffffffffffffffffffffffffffff16815260200190815260200160002080549050111561251d57600091505b600260008973ffffffffffffffffffffffffffffffffffffffff1673ffffffffffffffffffffffffffffffffffffffff1681526020019081526020016000208054905082101561251c578460ff166001600260008b73ffffffffffffffffffffffffffffffffffffffff1673ffffffffffffffffffffffffffffffffffffffff1681526020019081526020016000208481548110151561221457fe5b906000526020600020015481548110151561222b57fe5b906000526020600020906003020160020160009054906101000a900460ff1660ff16141561250f57856001600260008b73ffffffffffffffffffffffffffffffffffffffff1673ffffffffffffffffffffffffffffffffffffffff168152602001908152602001600020848154811015156122a257fe5b90600052602060002001548154811015156122b957fe5b90600052602060002090600302016001015414156123fd576001600260008a73ffffffffffffffffffffffffffffffffffffffff1673ffffffffffffffffffffffffffffffffffffffff1681526020019081526020016000208381548110151561231f57fe5b906000526020600020015481548110151561233657fe5b9060005260206000209060030201600080820160006101000a81549073ffffffffffffffffffffffffffffffffffffffff021916905560018201600090556002820160006101000a81549060ff02191690556002820160016101000a81549060ff02191690555050600260008973ffffffffffffffffffffffffffffffffffffffff1673ffffffffffffffffffffffffffffffffffffffff168152602001908152602001600020828154811015156123ea57fe5b9060005260206000200160009055612501565b612486866001600260008c73ffffffffffffffffffffffffffffffffffffffff1673ffffffffffffffffffffffffffffffffffffffff1681526020019081526020016000208581548110151561244f57fe5b906000526020600020015481548110151561246657fe5b906000526020600020906003020160010154612c8c90919063ffffffff16565b6001600260008b73ffffffffffffffffffffffffffffffffffffffff1673ffffffffffffffffffffffffffffffffffffffff168152602001908152602001600020848154811015156124d457fe5b90600052602060002001548154811015156124eb57fe5b9060005260206000209060030201600101819055505b61250d8486888a61262a565b505b8180600101925050612178565b5b809250505095945050505050565b600080600090505b600860008473ffffffffffffffffffffffffffffffffffffffff1673ffffffffffffffffffffffffffffffffffffffff168152602001908152602001600020805490508110156125ed5783600860008573ffffffffffffffffffffffffffffffffffffffff1673ffffffffffffffffffffffffffffffffffffffff168152602001908152602001600020828154811015156125ca57fe5b906000526020600020015414156125e0576125ed565b8080600101915050612533565b8091505092915050565b60008082840290506000841480612618575082848281151561261557fe5b04145b151561262057fe5b8091505092915050565b6000806000612637612ca5565b600060148860ff161115151561264c57600080fd5b600092506000600260008873ffffffffffffffffffffffffffffffffffffffff1673ffffffffffffffffffffffffffffffffffffffff1681526020019081526020016000208054905011156127f957600093505b600260008773ffffffffffffffffffffffffffffffffffffffff1673ffffffffffffffffffffffffffffffffffffffff168152602001908152602001600020805490508410156127f8578760ff166001858154811015156126fd57fe5b906000526020600020906003020160020160009054906101000a900460ff1660ff1614156127eb576127588760018681548110151561273857fe5b906000526020600020906003020160010154612c6e90919063ffffffff16565b60018581548110151561276757fe5b9060005260206000209060030201600101819055508573ffffffffffffffffffffffffffffffffffffffff167f2854b136bf4fd3085f86deb8425ff9a48c39eb51c3b0276d3f75f46c648681db8a8a8a604051808460ff1660ff1681526020018360ff1660ff168152602001828152602001935050505060405180910390a2600192505b83806001019450506126a0565b5b8215156129eb576080604051908101604052808773ffffffffffffffffffffffffffffffffffffffff1681526020018881526020018960ff1681526020018a60ff168152509150612915600180849080600181540180825580915050906001820390600052602060002090600302016000909192909190915060008201518160000160006101000a81548173ffffffffffffffffffffffffffffffffffffffff021916908373ffffffffffffffffffffffffffffffffffffffff1602179055506020820151816001015560408201518160020160006101000a81548160ff021916908360ff16021790555060608201518160020160016101000a81548160ff021916908360ff1602179055505050612c8c90919063ffffffff16565b9050600260008773ffffffffffffffffffffffffffffffffffffffff1673ffffffffffffffffffffffffffffffffffffffff1681526020019081526020016000208190806001815401808255809150509060018203906000526020600020016000909192909190915055508573ffffffffffffffffffffffffffffffffffffffff167f17380e5c7e49bb63456c169391a3c9d352ebf36d3213078b1f8caec842b26edb8a8a8a604051808460ff1660ff1681526020018360ff1660ff168152602001828152602001935050505060405180910390a25b8160200151945050505050949350505050565b600080600080600260008773ffffffffffffffffffffffffffffffffffffffff1673ffffffffffffffffffffffffffffffffffffffff168152602001908152602001600020805490501115612bc657600091505b600260008673ffffffffffffffffffffffffffffffffffffffff1673ffffffffffffffffffffffffffffffffffffffff16815260200190815260200160002080549050821015612bc5578360ff166001600260008873ffffffffffffffffffffffffffffffffffffffff1673ffffffffffffffffffffffffffffffffffffffff16815260200190815260200160002084815481101515612aee57fe5b9060005260206000200154815481101515612b0557fe5b906000526020600020906003020160020160009054906101000a900460ff1660ff161415612bb857612bb66001600260008873ffffffffffffffffffffffffffffffffffffffff1673ffffffffffffffffffffffffffffffffffffffff16815260200190815260200160002084815481101515612b7e57fe5b9060005260206000200154815481101515612b9557fe5b90600052602060002090600302016001015482612c6e90919063ffffffff16565b505b8180600101925050612a52565b5b809250505092915050565b60008060008091505b600780549050821015612c64578360ff16600783815481101515612bfa57fe5b906000526020600020906006020160050160009054906101000a900460ff1660ff161415612c5757612c55600783815481101515612c3457fe5b90600052602060002090600602016004015482612c6e90919063ffffffff16565b505b8180600101925050612bda565b8092505050919050565b6000808284019050838110151515612c8257fe5b8091505092915050565b6000828211151515612c9a57fe5b818303905092915050565b608060405190810160405280600073ffffffffffffffffffffffffffffffffffffffff16815260200160008152602001600060ff168152602001600060ff16815250905600a165627a7a72305820d090f4ca276a67e7305cccb262dfde0990b81acfbb79c626279afc7add51eb920029",
  "source": "pragma solidity ^0.4.23;\r\n\r\nlibrary SafeMath {\r\n    function mul(uint256 a, uint256 b) internal pure returns (uint256) {\r\n        uint256 c = a * b;\r\n        assert(a == 0 || c / a == b);\r\n        return c;\r\n    }\r\n    function div(uint256 a, uint256 b) internal pure returns (uint256) {\r\n        uint256 c = a / b;\r\n        return c;\r\n    }\r\n    function sub(uint256 a, uint256 b) internal pure returns (uint256) {\r\n        assert(b <= a);\r\n        return a - b;\r\n    }\r\n    function add(uint256 a, uint256 b) internal pure returns (uint256) {\r\n        uint256 c = a + b;\r\n        assert(c >= a);\r\n        return c;\r\n    }\r\n}\r\n//\r\ncontract Ownable {\r\n    address public owner;\r\n\r\n    constructor() public {\r\n        owner = msg.sender;\r\n    }\r\n    modifier onlyOwner() {\r\n        require(msg.sender == owner);\r\n        _;\r\n    }\r\n    function transferOwnership(address newOwner) public onlyOwner {\r\n        if (newOwner != address(0)) {\r\n            owner = newOwner;\r\n        }\r\n    }\r\n}\r\ncontract Destructible is Ownable {\r\n    constructor() public payable { }\r\n    function destroy() onlyOwner public {\r\n        selfdestruct(owner);\r\n    }\r\n    function destroyAndSend(address _recipient) onlyOwner public {\r\n        selfdestruct(_recipient);\r\n    }\r\n}\r\ncontract Pausable is Ownable {\r\n    event Pause();\r\n    event Unpause();\r\n\r\n    bool public paused = false;\r\n    modifier whenNotPaused() {\r\n        require(!paused);\r\n        _;\r\n    }\r\n    modifier whenPaused() {\r\n        require(paused);\r\n        _;\r\n    }\r\n    function pause() onlyOwner whenNotPaused public {\r\n        paused = true;\r\n        emit Pause();\r\n    }\r\n    function unpause() onlyOwner whenPaused public {\r\n        paused = false;\r\n        emit Unpause();\r\n    }\r\n}\r\ncontract ERC20Interface {\r\n    function transferFrom(address from, address to, uint tokens) public returns (bool success);\r\n    function balanceOf(address _owner) public view returns (uint256 balance);\r\n    function totalSupply() public view returns (uint256 total);\r\n}\r\n\r\ncontract ERC721Interface {\r\n    function ownerOf(uint256 tokenId) public view returns (address);\r\n    function safeTransferFrom(address from, address to, uint256 tokenId) public;\r\n    function approve(address _to, uint256 _tokenId) external;\r\n}\r\n\r\ncontract Market20 is Ownable,Pausable {\r\n    using SafeMath for uint256;\r\n    using SafeMath for uint8;\r\n\r\n    event EggMkCreated(uint8 _level,uint8 _eType,uint256 _count,address indexed _owner);\r\n    event TransferEggMk(address indexed _from,address indexed _to,uint256 _count,uint8 _eType,uint8 _level);\r\n    event EggMkUpdated(uint8 _level,uint8 _eType,uint256 _count,address indexed _owner);\r\n\r\n    struct EggMk {\r\n        address owner;\r\n        uint256 mkCount;\r\n        uint8 eType;\r\n        uint8 level;\r\n    }\r\n    EggMk[] eggs;\r\n    mapping (address => uint256[]) public mappEggMk;\r\n\r\n    function _createEggMk(uint8 _level,uint8 _eType,uint256 _count,address _owner) internal returns (uint){\r\n        require(_eType <= 20);\r\n        uint i;\r\n        bool flag = false;\r\n        if(mappEggMk[_owner].length >0 ){\r\n            for(i=0;i<mappEggMk[_owner].length;i++){\r\n                if(eggs[i].eType == _eType){\r\n                    eggs[i].mkCount = eggs[i].mkCount.add(_count);\r\n                    emit EggMkUpdated(_level,_eType,_count,_owner);\r\n                    flag = true;\r\n                }\r\n            }\r\n        }\r\n        if(!flag){\r\n            EggMk memory curEggMak = EggMk(_owner,_count,_eType,_level);\r\n            uint256 auctionId = eggs.push(curEggMak).sub(1);\r\n            mappEggMk[_owner].push(auctionId);\r\n            emit EggMkCreated(_level,_eType,_count,_owner);\r\n        }\r\n        return curEggMak.mkCount;\r\n    }\r\n\r\n    function _transferEggMk(address _from,address _to,uint256 _count,uint8 _eType,uint8 _level) internal returns (bool){\r\n        require(_eType <= 20);\r\n        require(_count >= 1);\r\n        uint i;\r\n        bool flag = false;\r\n        if(mappEggMk[_from].length >0 ){\r\n            for(i=0;i<mappEggMk[_from].length;i++){\r\n                if(eggs[mappEggMk[_from][i]].eType == _eType){\r\n                    if(eggs[mappEggMk[_from][i]].mkCount == _count){\r\n                        delete eggs[mappEggMk[_from][i]];\r\n                        delete mappEggMk[_from][i];\r\n                    }else{\r\n                        eggs[mappEggMk[_from][i]].mkCount = eggs[mappEggMk[_from][i]].mkCount.sub(_count);\r\n                    }\r\n                    //TODO need to for find _to exist\r\n                    _createEggMk(_level,_eType,_count,_to);\r\n                }\r\n            }\r\n        }\r\n        return flag;\r\n    }\r\n    function _getEggCount(address _owner,uint8 _eType) internal view returns (uint256){\r\n        uint256 i;\r\n        uint256 count;\r\n        if(mappEggMk[_owner].length >0 ){\r\n            for(i=0;i<mappEggMk[_owner].length;i++){\r\n                if(eggs[mappEggMk[_owner][i]].eType == _eType){\r\n                    count.add(eggs[mappEggMk[_owner][i]].mkCount);\r\n                }\r\n            }\r\n        }\r\n        return count;\r\n    }\r\n}\r\n\r\ncontract MarketUse is Market20 {\r\n    ERC20Interface public acceptedToken;\r\n    ERC721Interface public nonFungibleRegistry;\r\n\r\n    uint256 public constant CREATION_LIMIT = 500000;\r\n    uint256 public constant TRANSFER_STAND = 10;\r\n    uint256 public totalCount;\r\n    uint256 public createdCount;\r\n\r\n    function createInitEgg( address _owner) external onlyOwner {\r\n        require(createdCount < CREATION_LIMIT);\r\n        require(acceptedToken.balanceOf(_owner).mul(TRANSFER_STAND) > CREATION_LIMIT );\r\n        _createEggMk(0, 0,CREATION_LIMIT,_owner);\r\n        createdCount = CREATION_LIMIT;\r\n    }\r\n    function createEgg(uint8 _level,uint8 _eType,uint256 _count, address _owner) external onlyOwner {\r\n        require(acceptedToken.balanceOf(_owner).mul(TRANSFER_STAND) > _count);\r\n        _createEggMk(_level, _eType,_count,_owner);\r\n    }\r\n    function transferEggMk(address _from,address _to,uint256 _count,uint8 _eType,uint8 _level) external onlyOwner returns (bool){\r\n        require(_eType <= 20);\r\n        require(_count >= 1);\r\n        _transferEggMk(_from,_to,_count,_eType,_level);\r\n    }\r\n    function getEggList(address _address) external view returns (uint256[]) {\r\n        return mappEggMk[_address];\r\n    }\r\n    function getEggByType(uint256 _index) external view returns (\r\n        address owner,\r\n        uint256 mkCount,\r\n        uint8 eType,\r\n        uint8 level\r\n    ) {\r\n        EggMk storage mk = eggs[_index];\r\n        return (mk.owner,mk.mkCount,mk.eType,mk.level);\r\n    }\r\n}\r\n\r\ncontract SalesAndPlay is MarketUse {\r\n    struct Auction {\r\n        uint256 id;// Auction ID\r\n        address seller;// Owner of the NFT\r\n        uint256 price;// Price (in wei) for the published item\r\n        uint256 expiresAt;// Time when this sale ends\r\n        uint256 salesCount;\r\n        uint8 eType;\r\n    }\r\n    struct War {\r\n        uint256 id;// war ID\r\n        address seller;// Owner of the NFT\r\n        uint256 random;// random number\r\n        uint256 startTime;// Time when this war start\r\n        uint256 expiresAt;// Time when this war ends\r\n        uint8 eType;//war type\r\n    }\r\n\r\n    Auction[] public auctions;\r\n    mapping (address => uint256[]) public auctionByTokenId;\r\n\r\n    uint256 public ownerCutPercentage;\r\n    uint256 public publicationFeeInWei = 10 ether;\r\n\r\n    /* EVENTS */\r\n    event AuctionCreated(\r\n        uint256 id,\r\n        address indexed seller,\r\n        uint256 priceInWei,\r\n        uint256 expiresAt,\r\n        uint256 salesCount,\r\n        uint8 eType);\r\n    event AuctionSuccessful(\r\n        uint256 id,\r\n        address indexed seller,\r\n        uint256 totalPrice,\r\n        address indexed winner,\r\n        uint256 salesCount,\r\n        uint8 eType);\r\n    event AuctionCancelled(\r\n        uint256 id,\r\n        uint256 count,\r\n        address indexed seller);\r\n\r\n    event ChangedPublicationFee(uint256 publicationFee);\r\n    event ChangedOwnerCut(uint256 ownerCut);\r\n\r\n    constructor(address _acceptedToken, address _nonFungibleRegistry) public {\r\n        acceptedToken = ERC20Interface(_acceptedToken);\r\n        nonFungibleRegistry = ERC721Interface(_nonFungibleRegistry);\r\n    }\r\n\r\n    function _getAuctionIndex(uint256 _auctionId,address _owner) view internal returns (uint256) {\r\n        uint256 i;\r\n        for(i=0;i<auctionByTokenId[_owner].length;i++){\r\n            if(auctionByTokenId[_owner][i] == _auctionId){\r\n                break;\r\n            }\r\n        }\r\n        return i;\r\n    }\r\n    function _getAuctionCountByType(uint8 _eType) view internal returns (uint256) {\r\n        uint256 i;\r\n        uint256 count;\r\n        for(i=0;i<auctions.length;i++){\r\n            if(auctions[i].eType == _eType){\r\n                count.add(auctions[i].salesCount);\r\n            }\r\n        }\r\n        return count;\r\n    }\r\n\r\n    function createEggAuction(uint256 priceInWei, uint256 expiresAt,uint256 _count,uint8 _eType,uint8 _level) public whenNotPaused {\r\n        require(msg.sender != address(0));\r\n        require(_eType <= 20);\r\n        require(_count >= 1);\r\n        uint tokenCount = acceptedToken.balanceOf(msg.sender).mul(TRANSFER_STAND);\r\n        require(_count <= tokenCount );\r\n        require(priceInWei > 0);\r\n        //owner\r\n        uint256 ownerCount = _getEggCount(msg.sender,_eType);\r\n        uint256 auctionCount = _getAuctionCountByType(_eType).add(_count);\r\n        require( ownerCount>= auctionCount);\r\n        uint256 auctionId = auctions.length;\r\n        auctions.push(Auction({id: auctionId,seller: msg.sender,\r\n            price: priceInWei,expiresAt: expiresAt,salesCount: _count,eType: _eType}));\r\n        auctionByTokenId[msg.sender].push(auctionId);\r\n\r\n        if(owner != msg.sender){\r\n            require(_transferEggMk(msg.sender,owner,_count,_eType,_level));\r\n\r\n            require(acceptedToken.transferFrom(\r\n                    msg.sender,\r\n                    owner,\r\n                    publicationFeeInWei.mul(_count)\r\n                ));\r\n        }\r\n        emit AuctionCreated(auctionId,msg.sender,priceInWei,expiresAt,_count,_eType);\r\n    }\r\n    function cancelEggAuction(uint256 _auctionId) public whenNotPaused {\r\n        uint256 i = _getAuctionIndex(_auctionId,msg.sender);\r\n        uint256 salesCount = auctions[_auctionId].salesCount;\r\n        require(i>=0 || msg.sender == owner);\r\n        if(msg.sender != owner){\r\n            require(acceptedToken.transferFrom(\r\n                    owner,\r\n                    msg.sender,\r\n                    publicationFeeInWei.mul(salesCount)\r\n                ));\r\n        }\r\n        delete auctionByTokenId[msg.sender][i];\r\n        delete auctions[_auctionId];\r\n\r\n        emit AuctionCancelled(_auctionId, salesCount, msg.sender);\r\n    }\r\n\r\n    function executeEggAuction(uint256 _auctionId,uint256 _count) public payable whenNotPaused {\r\n        address seller = auctions[_auctionId].seller;\r\n        require(seller != address(0));\r\n        require(seller != msg.sender);\r\n        require(auctions[_auctionId].salesCount > 0);\r\n        require(auctions[_auctionId].price == msg.value);\r\n\r\n        uint8 eType = auctions[_auctionId].eType;\r\n        uint price = msg.value;\r\n        uint saleFeeAmount = price.div(100);\r\n        uint256 sellerProceeds = price - saleFeeAmount;\r\n        if(seller != owner){\r\n            seller.transfer(sellerProceeds);\r\n        }\r\n        //transfer DDC\r\n        //require(acceptedToken.transferFrom(owner,msg.sender,publicationFeeInWei.mul(_count)));\r\n        // Transfer token owner\r\n        _transferEggMk(owner,msg.sender,_count,eType,0);\r\n        uint256 i = _getAuctionIndex(_auctionId,msg.sender);\r\n        delete auctionByTokenId[owner][i];\r\n        delete auctions[_auctionId];\r\n\r\n        emit AuctionSuccessful(_auctionId,seller, price, msg.sender,_count,eType);\r\n    }\r\n    function getAuctions() external view returns (uint256,uint256[]) {\r\n        uint256[] memory result = new uint256[](auctions.length);\r\n        uint256 i;\r\n        for(i=0;i<auctions.length;i++){\r\n            result[i] = auctions[i].id;\r\n        }\r\n        return (auctions.length,result);\r\n    }\r\n\r\n    function getAuction(uint256 _id) external view returns (\r\n        uint256 id,\r\n        address seller,\r\n        uint256 price,\r\n        uint256 expiresAt,\r\n        uint256 salesCount,\r\n        uint8 eType\r\n    ) {\r\n        Auction storage auction = auctions[_id];\r\n        id =auction.id;\r\n        seller = auction.seller;\r\n        price = auction.price;\r\n        expiresAt = auction.expiresAt;\r\n        salesCount = auction.salesCount;\r\n        eType = auction.eType;\r\n    }\r\n}",
  "sourcePath": "/home/lwd/trufflepro/contracts/PlayAuction.sol",
  "compiler": {
    "name": "solc",
    "version": "0.4.23+commit.124ca40d.Emscripten.clang"
  },
  "schemaVersion": "2.0.0",
  "updatedAt": "2018-05-14T04:04:32.205Z"
}